{
  "_format": "hh-sol-artifact-1",
  "contractName": "Metadata",
  "sourceName": "contracts/Metadata.sol",
  "abi": [
    {
      "inputs": [],
      "stateMutability": "nonpayable",
      "type": "constructor"
    },
    {
      "anonymous": false,
      "inputs": [
        {
          "indexed": true,
          "internalType": "address",
          "name": "previousOwner",
          "type": "address"
        },
        {
          "indexed": true,
          "internalType": "address",
          "name": "newOwner",
          "type": "address"
        }
      ],
      "name": "OwnershipTransferred",
      "type": "event"
    },
    {
      "inputs": [],
      "name": "baseURI",
      "outputs": [
        {
          "internalType": "string",
          "name": "",
          "type": "string"
        }
      ],
      "stateMutability": "view",
      "type": "function"
    },
    {
      "inputs": [
        {
          "internalType": "uint256",
          "name": "tokenId",
          "type": "uint256"
        }
      ],
      "name": "getMetadata",
      "outputs": [
        {
          "internalType": "string",
          "name": "",
          "type": "string"
        }
      ],
      "stateMutability": "view",
      "type": "function"
    },
    {
      "inputs": [
        {
          "internalType": "uint256",
          "name": "tokenId",
          "type": "uint256"
        }
      ],
      "name": "getSecondMetadata",
      "outputs": [
        {
          "internalType": "string",
          "name": "",
          "type": "string"
        }
      ],
      "stateMutability": "view",
      "type": "function"
    },
    {
      "inputs": [],
      "name": "owner",
      "outputs": [
        {
          "internalType": "address",
          "name": "",
          "type": "address"
        }
      ],
      "stateMutability": "view",
      "type": "function"
    },
    {
      "inputs": [],
      "name": "renounceOwnership",
      "outputs": [],
      "stateMutability": "nonpayable",
      "type": "function"
    },
    {
      "inputs": [],
      "name": "secondBasURI",
      "outputs": [
        {
          "internalType": "string",
          "name": "",
          "type": "string"
        }
      ],
      "stateMutability": "view",
      "type": "function"
    },
    {
      "inputs": [
        {
          "internalType": "string",
          "name": "secondBaseURI_",
          "type": "string"
        }
      ],
      "name": "setSecondBaseURI",
      "outputs": [],
      "stateMutability": "nonpayable",
      "type": "function"
    },
    {
      "inputs": [
        {
          "internalType": "string",
          "name": "baseURI_",
          "type": "string"
        }
      ],
      "name": "setbaseURI",
      "outputs": [],
      "stateMutability": "nonpayable",
      "type": "function"
    },
    {
      "inputs": [
        {
          "internalType": "address",
          "name": "newOwner",
          "type": "address"
        }
      ],
      "name": "transferOwnership",
      "outputs": [],
      "stateMutability": "nonpayable",
      "type": "function"
    }
  ],
  "bytecode": "0x60e06040526023608081815290610a8f60a03960019061001f9082610156565b50604080518082019091526007815266697066733a2f2f60c81b602082015260029061004b9082610156565b5034801561005857600080fd5b5061006233610067565b610215565b600080546001600160a01b038381166001600160a01b0319831681178455604051919092169283917f8be0079c531659141344cd1fd0a4f28419497f9722a3daafe3b4186f6b6457e09190a35050565b634e487b7160e01b600052604160045260246000fd5b600181811c908216806100e157607f821691505b60208210810361010157634e487b7160e01b600052602260045260246000fd5b50919050565b601f82111561015157600081815260208120601f850160051c8101602086101561012e5750805b601f850160051c820191505b8181101561014d5782815560010161013a565b5050505b505050565b81516001600160401b0381111561016f5761016f6100b7565b6101838161017d84546100cd565b84610107565b602080601f8311600181146101b857600084156101a05750858301515b600019600386901b1c1916600185901b17855561014d565b600085815260208120601f198616915b828110156101e7578886015182559484019460019091019084016101c8565b50858210156102055787850151600019600388901b60f8161c191681555b5050505050600190811b01905550565b61086b806102246000396000f3fe608060405234801561001057600080fd5b50600436106100935760003560e01c80638da5cb5b116100665780638da5cb5b146100e6578063930fa27b14610101578063a574cea414610114578063ec7fc65014610127578063f2fde38b1461012f57600080fd5b806302522085146100985780634a44f379146100c15780636c0360eb146100d6578063715018a6146100de575b600080fd5b6100ab6100a63660046104f2565b610142565b6040516100b8919061053b565b60405180910390f35b6100d46100cf366004610584565b610176565b005b6100ab61018e565b6100d461021c565b6000546040516001600160a01b0390911681526020016100b8565b6100d461010f366004610584565b610230565b6100ab6101223660046104f2565b610244565b6100ab610251565b6100d461013d366004610635565b61025e565b6060600261014f836102dc565b60405160200161016092919061069f565b6040516020818303038152906040529050919050565b61017e61036f565b600161018a8282610775565b5050565b6001805461019b90610665565b80601f01602080910402602001604051908101604052809291908181526020018280546101c790610665565b80156102145780601f106101e957610100808354040283529160200191610214565b820191906000526020600020905b8154815290600101906020018083116101f757829003601f168201915b505050505081565b61022461036f565b61022e60006103c9565b565b61023861036f565b600261018a8282610775565b6060600161014f836102dc565b6002805461019b90610665565b61026661036f565b6001600160a01b0381166102d05760405162461bcd60e51b815260206004820152602660248201527f4f776e61626c653a206e6577206f776e657220697320746865207a65726f206160448201526564647265737360d01b60648201526084015b60405180910390fd5b6102d9816103c9565b50565b606060006102e983610419565b600101905060008167ffffffffffffffff8111156103095761030961056e565b6040519080825280601f01601f191660200182016040528015610333576020820181803683370190505b5090508181016020015b600019016f181899199a1a9b1b9c1cb0b131b232b360811b600a86061a8153600a850494508461033d57509392505050565b6000546001600160a01b0316331461022e5760405162461bcd60e51b815260206004820181905260248201527f4f776e61626c653a2063616c6c6572206973206e6f7420746865206f776e657260448201526064016102c7565b600080546001600160a01b038381166001600160a01b0319831681178455604051919092169283917f8be0079c531659141344cd1fd0a4f28419497f9722a3daafe3b4186f6b6457e09190a35050565b60008072184f03e93ff9f4daa797ed6e38ed64bf6a1f0160401b83106104585772184f03e93ff9f4daa797ed6e38ed64bf6a1f0160401b830492506040015b6d04ee2d6d415b85acef81000000008310610484576d04ee2d6d415b85acef8100000000830492506020015b662386f26fc1000083106104a257662386f26fc10000830492506010015b6305f5e10083106104ba576305f5e100830492506008015b61271083106104ce57612710830492506004015b606483106104e0576064830492506002015b600a83106104ec576001015b92915050565b60006020828403121561050457600080fd5b5035919050565b60005b8381101561052657818101518382015260200161050e565b83811115610535576000848401525b50505050565b602081526000825180602084015261055a81604085016020870161050b565b601f01601f19169190910160400192915050565b634e487b7160e01b600052604160045260246000fd5b60006020828403121561059657600080fd5b813567ffffffffffffffff808211156105ae57600080fd5b818401915084601f8301126105c257600080fd5b8135818111156105d4576105d461056e565b604051601f8201601f19908116603f011681019083821181831017156105fc576105fc61056e565b8160405282815287602084870101111561061557600080fd5b826020860160208301376000928101602001929092525095945050505050565b60006020828403121561064757600080fd5b81356001600160a01b038116811461065e57600080fd5b9392505050565b600181811c9082168061067957607f821691505b60208210810361069957634e487b7160e01b600052602260045260246000fd5b50919050565b60008084546106ad81610665565b600182811680156106c557600181146106da57610709565b60ff1984168752821515830287019450610709565b8860005260208060002060005b858110156107005781548a8201529084019082016106e7565b50505082870194505b50505050835161071d81836020880161050b565b01949350505050565b601f82111561077057600081815260208120601f850160051c8101602086101561074d5750805b601f850160051c820191505b8181101561076c57828155600101610759565b5050505b505050565b815167ffffffffffffffff81111561078f5761078f61056e565b6107a38161079d8454610665565b84610726565b602080601f8311600181146107d857600084156107c05750858301515b600019600386901b1c1916600185901b17855561076c565b600085815260208120601f198616915b82811015610807578886015182559484019460019091019084016107e8565b50858210156108255787850151600019600388901b60f8161c191681555b5050505050600190811b0190555056fea26469706673582212209a5bebf7f4f20a07fa9ac849d114926c864e6728a9096864e3140c9833c4d63b64736f6c634300080f003368747470733a2f2f646f61772e666f6c69612e6170702f76312f6d657461646174612f",
  "linkReferences": {},
  "deployedLinkReferences": {}
}