{
  "_format": "hh-sol-artifact-1",
  "contractName": "DoAW",
  "sourceName": "contracts/DoAW.sol",
  "abi": [
    {
      "inputs": [
        {
          "internalType": "address",
          "name": "metadata_",
          "type": "address"
        },
        {
          "internalType": "address",
          "name": "splitter_",
          "type": "address"
        }
      ],
      "stateMutability": "nonpayable",
      "type": "constructor"
    },
    {
      "anonymous": false,
      "inputs": [
        {
          "indexed": true,
          "internalType": "address",
          "name": "owner",
          "type": "address"
        },
        {
          "indexed": true,
          "internalType": "address",
          "name": "approved",
          "type": "address"
        },
        {
          "indexed": true,
          "internalType": "uint256",
          "name": "tokenId",
          "type": "uint256"
        }
      ],
      "name": "Approval",
      "type": "event"
    },
    {
      "anonymous": false,
      "inputs": [
        {
          "indexed": true,
          "internalType": "address",
          "name": "owner",
          "type": "address"
        },
        {
          "indexed": true,
          "internalType": "address",
          "name": "operator",
          "type": "address"
        },
        {
          "indexed": false,
          "internalType": "bool",
          "name": "approved",
          "type": "bool"
        }
      ],
      "name": "ApprovalForAll",
      "type": "event"
    },
    {
      "anonymous": false,
      "inputs": [
        {
          "indexed": true,
          "internalType": "address",
          "name": "to",
          "type": "address"
        },
        {
          "indexed": true,
          "internalType": "bool",
          "name": "success",
          "type": "bool"
        },
        {
          "indexed": false,
          "internalType": "bytes",
          "name": "returnData",
          "type": "bytes"
        },
        {
          "indexed": false,
          "internalType": "uint256",
          "name": "amount",
          "type": "uint256"
        }
      ],
      "name": "EthMoved",
      "type": "event"
    },
    {
      "anonymous": false,
      "inputs": [
        {
          "indexed": true,
          "internalType": "address",
          "name": "previousOwner",
          "type": "address"
        },
        {
          "indexed": true,
          "internalType": "address",
          "name": "newOwner",
          "type": "address"
        }
      ],
      "name": "OwnershipTransferred",
      "type": "event"
    },
    {
      "anonymous": false,
      "inputs": [
        {
          "indexed": true,
          "internalType": "address",
          "name": "from",
          "type": "address"
        },
        {
          "indexed": true,
          "internalType": "address",
          "name": "to",
          "type": "address"
        },
        {
          "indexed": true,
          "internalType": "uint256",
          "name": "tokenId",
          "type": "uint256"
        }
      ],
      "name": "Transfer",
      "type": "event"
    },
    {
      "stateMutability": "payable",
      "type": "fallback"
    },
    {
      "inputs": [],
      "name": "MAX_SUPPLY",
      "outputs": [
        {
          "internalType": "uint256",
          "name": "",
          "type": "uint256"
        }
      ],
      "stateMutability": "view",
      "type": "function"
    },
    {
      "inputs": [
        {
          "internalType": "address",
          "name": "recipient",
          "type": "address"
        },
        {
          "internalType": "uint256",
          "name": "quantity",
          "type": "uint256"
        },
        {
          "internalType": "uint256[]",
          "name": "entropy",
          "type": "uint256[]"
        }
      ],
      "name": "adminMint",
      "outputs": [],
      "stateMutability": "payable",
      "type": "function"
    },
    {
      "inputs": [
        {
          "internalType": "address",
          "name": "recipient",
          "type": "address"
        },
        {
          "internalType": "uint256",
          "name": "quantity",
          "type": "uint256"
        }
      ],
      "name": "adminMint",
      "outputs": [],
      "stateMutability": "payable",
      "type": "function"
    },
    {
      "inputs": [
        {
          "internalType": "address",
          "name": "_wallet",
          "type": "address"
        },
        {
          "internalType": "bytes32[]",
          "name": "_proof",
          "type": "bytes32[]"
        }
      ],
      "name": "allowListed",
      "outputs": [
        {
          "internalType": "bool",
          "name": "",
          "type": "bool"
        }
      ],
      "stateMutability": "view",
      "type": "function"
    },
    {
      "inputs": [
        {
          "internalType": "address",
          "name": "to",
          "type": "address"
        },
        {
          "internalType": "uint256",
          "name": "tokenId",
          "type": "uint256"
        }
      ],
      "name": "approve",
      "outputs": [],
      "stateMutability": "nonpayable",
      "type": "function"
    },
    {
      "inputs": [
        {
          "internalType": "address",
          "name": "owner",
          "type": "address"
        }
      ],
      "name": "balanceOf",
      "outputs": [
        {
          "internalType": "uint256",
          "name": "",
          "type": "uint256"
        }
      ],
      "stateMutability": "view",
      "type": "function"
    },
    {
      "inputs": [
        {
          "internalType": "uint256",
          "name": "tokenId",
          "type": "uint256"
        }
      ],
      "name": "getApproved",
      "outputs": [
        {
          "internalType": "address",
          "name": "",
          "type": "address"
        }
      ],
      "stateMutability": "view",
      "type": "function"
    },
    {
      "inputs": [
        {
          "internalType": "bytes32",
          "name": "entropy",
          "type": "bytes32"
        }
      ],
      "name": "hexToUintUtil",
      "outputs": [
        {
          "internalType": "uint256",
          "name": "result",
          "type": "uint256"
        }
      ],
      "stateMutability": "pure",
      "type": "function"
    },
    {
      "inputs": [
        {
          "internalType": "address",
          "name": "owner",
          "type": "address"
        },
        {
          "internalType": "address",
          "name": "operator",
          "type": "address"
        }
      ],
      "name": "isApprovedForAll",
      "outputs": [
        {
          "internalType": "bool",
          "name": "",
          "type": "bool"
        }
      ],
      "stateMutability": "view",
      "type": "function"
    },
    {
      "inputs": [
        {
          "internalType": "uint256",
          "name": "quantity",
          "type": "uint256"
        }
      ],
      "name": "makeEntropy",
      "outputs": [
        {
          "internalType": "uint256[]",
          "name": "entropy",
          "type": "uint256[]"
        }
      ],
      "stateMutability": "view",
      "type": "function"
    },
    {
      "inputs": [],
      "name": "merkleRoot",
      "outputs": [
        {
          "internalType": "bytes32",
          "name": "",
          "type": "bytes32"
        }
      ],
      "stateMutability": "view",
      "type": "function"
    },
    {
      "inputs": [],
      "name": "metadata",
      "outputs": [
        {
          "internalType": "address",
          "name": "",
          "type": "address"
        }
      ],
      "stateMutability": "view",
      "type": "function"
    },
    {
      "inputs": [],
      "name": "mint",
      "outputs": [],
      "stateMutability": "payable",
      "type": "function"
    },
    {
      "inputs": [
        {
          "internalType": "address",
          "name": "recipient",
          "type": "address"
        },
        {
          "internalType": "uint256",
          "name": "quantity",
          "type": "uint256"
        }
      ],
      "name": "mint",
      "outputs": [],
      "stateMutability": "payable",
      "type": "function"
    },
    {
      "inputs": [
        {
          "internalType": "address",
          "name": "recipient",
          "type": "address"
        }
      ],
      "name": "mint",
      "outputs": [],
      "stateMutability": "payable",
      "type": "function"
    },
    {
      "inputs": [
        {
          "internalType": "uint256",
          "name": "quantity",
          "type": "uint256"
        }
      ],
      "name": "mint",
      "outputs": [],
      "stateMutability": "payable",
      "type": "function"
    },
    {
      "inputs": [
        {
          "internalType": "address",
          "name": "recipient",
          "type": "address"
        },
        {
          "internalType": "uint256",
          "name": "quantity",
          "type": "uint256"
        },
        {
          "internalType": "uint256[]",
          "name": "entropy",
          "type": "uint256[]"
        }
      ],
      "name": "mint",
      "outputs": [],
      "stateMutability": "payable",
      "type": "function"
    },
    {
      "inputs": [
        {
          "internalType": "uint256",
          "name": "quantity",
          "type": "uint256"
        },
        {
          "internalType": "bytes32[]",
          "name": "_proof",
          "type": "bytes32[]"
        }
      ],
      "name": "mintAllowList",
      "outputs": [],
      "stateMutability": "payable",
      "type": "function"
    },
    {
      "inputs": [
        {
          "internalType": "address",
          "name": "recipient",
          "type": "address"
        },
        {
          "internalType": "uint256",
          "name": "entropy",
          "type": "uint256"
        }
      ],
      "name": "mintWithEntropy",
      "outputs": [],
      "stateMutability": "payable",
      "type": "function"
    },
    {
      "inputs": [],
      "name": "name",
      "outputs": [
        {
          "internalType": "string",
          "name": "",
          "type": "string"
        }
      ],
      "stateMutability": "view",
      "type": "function"
    },
    {
      "inputs": [],
      "name": "owner",
      "outputs": [
        {
          "internalType": "address",
          "name": "",
          "type": "address"
        }
      ],
      "stateMutability": "view",
      "type": "function"
    },
    {
      "inputs": [
        {
          "internalType": "uint256",
          "name": "tokenId",
          "type": "uint256"
        }
      ],
      "name": "ownerOf",
      "outputs": [
        {
          "internalType": "address",
          "name": "",
          "type": "address"
        }
      ],
      "stateMutability": "view",
      "type": "function"
    },
    {
      "inputs": [],
      "name": "paused",
      "outputs": [
        {
          "internalType": "bool",
          "name": "",
          "type": "bool"
        }
      ],
      "stateMutability": "view",
      "type": "function"
    },
    {
      "inputs": [],
      "name": "premint",
      "outputs": [
        {
          "internalType": "uint256",
          "name": "",
          "type": "uint256"
        }
      ],
      "stateMutability": "view",
      "type": "function"
    },
    {
      "inputs": [],
      "name": "price",
      "outputs": [
        {
          "internalType": "uint256",
          "name": "",
          "type": "uint256"
        }
      ],
      "stateMutability": "view",
      "type": "function"
    },
    {
      "inputs": [
        {
          "internalType": "address payable",
          "name": "_to",
          "type": "address"
        }
      ],
      "name": "recoverUnsuccessfulMintPayment",
      "outputs": [],
      "stateMutability": "nonpayable",
      "type": "function"
    },
    {
      "inputs": [],
      "name": "renounceOwnership",
      "outputs": [],
      "stateMutability": "nonpayable",
      "type": "function"
    },
    {
      "inputs": [
        {
          "internalType": "uint256",
          "name": "tokenId",
          "type": "uint256"
        },
        {
          "internalType": "uint256",
          "name": "salePrice",
          "type": "uint256"
        }
      ],
      "name": "royaltyInfo",
      "outputs": [
        {
          "internalType": "address",
          "name": "",
          "type": "address"
        },
        {
          "internalType": "uint256",
          "name": "",
          "type": "uint256"
        }
      ],
      "stateMutability": "view",
      "type": "function"
    },
    {
      "inputs": [
        {
          "internalType": "address",
          "name": "from",
          "type": "address"
        },
        {
          "internalType": "address",
          "name": "to",
          "type": "address"
        },
        {
          "internalType": "uint256",
          "name": "tokenId",
          "type": "uint256"
        }
      ],
      "name": "safeTransferFrom",
      "outputs": [],
      "stateMutability": "nonpayable",
      "type": "function"
    },
    {
      "inputs": [
        {
          "internalType": "address",
          "name": "from",
          "type": "address"
        },
        {
          "internalType": "address",
          "name": "to",
          "type": "address"
        },
        {
          "internalType": "uint256",
          "name": "tokenId",
          "type": "uint256"
        },
        {
          "internalType": "bytes",
          "name": "data",
          "type": "bytes"
        }
      ],
      "name": "safeTransferFrom",
      "outputs": [],
      "stateMutability": "nonpayable",
      "type": "function"
    },
    {
      "inputs": [
        {
          "internalType": "address",
          "name": "operator",
          "type": "address"
        },
        {
          "internalType": "bool",
          "name": "approved",
          "type": "bool"
        }
      ],
      "name": "setApprovalForAll",
      "outputs": [],
      "stateMutability": "nonpayable",
      "type": "function"
    },
    {
      "inputs": [
        {
          "internalType": "bytes32",
          "name": "merkleRoot_",
          "type": "bytes32"
        }
      ],
      "name": "setMerkleRoot",
      "outputs": [],
      "stateMutability": "nonpayable",
      "type": "function"
    },
    {
      "inputs": [
        {
          "internalType": "address",
          "name": "metadata_",
          "type": "address"
        }
      ],
      "name": "setMetadata",
      "outputs": [],
      "stateMutability": "nonpayable",
      "type": "function"
    },
    {
      "inputs": [
        {
          "internalType": "bool",
          "name": "paused_",
          "type": "bool"
        }
      ],
      "name": "setPause",
      "outputs": [],
      "stateMutability": "nonpayable",
      "type": "function"
    },
    {
      "inputs": [
        {
          "internalType": "uint256",
          "name": "premint_",
          "type": "uint256"
        }
      ],
      "name": "setPremint",
      "outputs": [],
      "stateMutability": "nonpayable",
      "type": "function"
    },
    {
      "inputs": [
        {
          "internalType": "uint256",
          "name": "price_",
          "type": "uint256"
        }
      ],
      "name": "setPrice",
      "outputs": [],
      "stateMutability": "nonpayable",
      "type": "function"
    },
    {
      "inputs": [
        {
          "internalType": "address",
          "name": "royaltyReceiver",
          "type": "address"
        },
        {
          "internalType": "uint96",
          "name": "royaltyPercentage",
          "type": "uint96"
        }
      ],
      "name": "setRoyaltyPercentage",
      "outputs": [],
      "stateMutability": "nonpayable",
      "type": "function"
    },
    {
      "inputs": [
        {
          "internalType": "address",
          "name": "splitter_",
          "type": "address"
        }
      ],
      "name": "setSplitter",
      "outputs": [],
      "stateMutability": "nonpayable",
      "type": "function"
    },
    {
      "inputs": [
        {
          "internalType": "uint256",
          "name": "startdate_",
          "type": "uint256"
        }
      ],
      "name": "setStartdate",
      "outputs": [],
      "stateMutability": "nonpayable",
      "type": "function"
    },
    {
      "inputs": [],
      "name": "splitter",
      "outputs": [
        {
          "internalType": "address",
          "name": "",
          "type": "address"
        }
      ],
      "stateMutability": "view",
      "type": "function"
    },
    {
      "inputs": [],
      "name": "startdate",
      "outputs": [
        {
          "internalType": "uint256",
          "name": "",
          "type": "uint256"
        }
      ],
      "stateMutability": "view",
      "type": "function"
    },
    {
      "inputs": [
        {
          "internalType": "bytes4",
          "name": "interfaceId",
          "type": "bytes4"
        }
      ],
      "name": "supportsInterface",
      "outputs": [
        {
          "internalType": "bool",
          "name": "",
          "type": "bool"
        }
      ],
      "stateMutability": "view",
      "type": "function"
    },
    {
      "inputs": [],
      "name": "symbol",
      "outputs": [
        {
          "internalType": "string",
          "name": "",
          "type": "string"
        }
      ],
      "stateMutability": "view",
      "type": "function"
    },
    {
      "inputs": [
        {
          "internalType": "uint256",
          "name": "index",
          "type": "uint256"
        }
      ],
      "name": "tokenByIndex",
      "outputs": [
        {
          "internalType": "uint256",
          "name": "",
          "type": "uint256"
        }
      ],
      "stateMutability": "view",
      "type": "function"
    },
    {
      "inputs": [
        {
          "internalType": "address",
          "name": "owner",
          "type": "address"
        },
        {
          "internalType": "uint256",
          "name": "index",
          "type": "uint256"
        }
      ],
      "name": "tokenOfOwnerByIndex",
      "outputs": [
        {
          "internalType": "uint256",
          "name": "",
          "type": "uint256"
        }
      ],
      "stateMutability": "view",
      "type": "function"
    },
    {
      "inputs": [
        {
          "internalType": "uint256",
          "name": "id",
          "type": "uint256"
        }
      ],
      "name": "tokenURI",
      "outputs": [
        {
          "internalType": "string",
          "name": "",
          "type": "string"
        }
      ],
      "stateMutability": "view",
      "type": "function"
    },
    {
      "inputs": [],
      "name": "totalSupply",
      "outputs": [
        {
          "internalType": "uint256",
          "name": "",
          "type": "uint256"
        }
      ],
      "stateMutability": "view",
      "type": "function"
    },
    {
      "inputs": [
        {
          "internalType": "address",
          "name": "from",
          "type": "address"
        },
        {
          "internalType": "address",
          "name": "to",
          "type": "address"
        },
        {
          "internalType": "uint256",
          "name": "tokenId",
          "type": "uint256"
        }
      ],
      "name": "transferFrom",
      "outputs": [],
      "stateMutability": "nonpayable",
      "type": "function"
    },
    {
      "inputs": [
        {
          "internalType": "address",
          "name": "newOwner",
          "type": "address"
        }
      ],
      "name": "transferOwnership",
      "outputs": [],
      "stateMutability": "nonpayable",
      "type": "function"
    },
    {
      "inputs": [
        {
          "internalType": "uint256",
          "name": "entropy",
          "type": "uint256"
        }
      ],
      "name": "uintToHexUtil",
      "outputs": [
        {
          "internalType": "bytes32",
          "name": "result",
          "type": "bytes32"
        }
      ],
      "stateMutability": "pure",
      "type": "function"
    },
    {
      "stateMutability": "payable",
      "type": "receive"
    }
  ],
  "bytecode": "0x6080604052600e805460ff1916905566038d7ea4c68000600f55636553b5a06012556365538b706013557ff78f6412ef155d654600b79b83071b194c4c94f1212bb3feea35d4a290c3d0c96014553480156200005a57600080fd5b50604051620031e2380380620031e28339810160408190526200007d91620002a6565b604080518082018252600480825263446f415760e01b6020808401829052845180860190955291845290830152906000620000b9838262000383565b506001620000c8828262000383565b505050620000e5620000df6200012e60201b60201c565b62000132565b6001600d55601080546001600160a01b038085166001600160a01b031992831617909255601180549284169290911682179055620001269061035262000184565b50506200044f565b3390565b600a80546001600160a01b038381166001600160a01b0319831681179093556040519116919082907f8be0079c531659141344cd1fd0a4f28419497f9722a3daafe3b4186f6b6457e090600090a35050565b6127106001600160601b0382161115620001f85760405162461bcd60e51b815260206004820152602a60248201527f455243323938313a20726f79616c7479206665652077696c6c206578636565646044820152692073616c65507269636560b01b60648201526084015b60405180910390fd5b6001600160a01b038216620002505760405162461bcd60e51b815260206004820152601960248201527f455243323938313a20696e76616c6964207265636569766572000000000000006044820152606401620001ef565b604080518082019091526001600160a01b039092168083526001600160601b039091166020909201829052600160a01b90910217600b55565b80516001600160a01b0381168114620002a157600080fd5b919050565b60008060408385031215620002ba57600080fd5b620002c58362000289565b9150620002d56020840162000289565b90509250929050565b634e487b7160e01b600052604160045260246000fd5b600181811c908216806200030957607f821691505b6020821081036200032a57634e487b7160e01b600052602260045260246000fd5b50919050565b601f8211156200037e57600081815260208120601f850160051c81016020861015620003595750805b601f850160051c820191505b818110156200037a5782815560010162000365565b5050505b505050565b81516001600160401b038111156200039f576200039f620002de565b620003b781620003b08454620002f4565b8462000330565b602080601f831160018114620003ef5760008415620003d65750858301515b600019600386901b1c1916600185901b1785556200037a565b600085815260208120601f198616915b828110156200042057888601518255948401946001909101908401620003ff565b50858210156200043f5787850151600019600388901b60f8161c191681555b5050505050600190811b01905550565b612d83806200045f6000396000f3fe6080604052600436106102cd5760003560e01c8063818779ef11610175578063bedb86fb116100dc578063e58306f911610095578063f3cb83851161006f578063f3cb838514610839578063f5d5327b14610859578063fa05a65714610886578063fe23245a14610899576102dc565b8063e58306f9146107bd578063e985e9c5146107d0578063f2fde38b14610819576102dc565b8063bedb86fb14610707578063c09fd8ef14610727578063c87b56dd14610747578063c93fc83d14610767578063cde9f2ea14610787578063d410f5691461079d576102dc565b806395d89b411161012e57806395d89b4114610689578063a035b1fe1461069e578063a0712d68146106b4578063a22cb465146106c7578063b88d4fde146106e7578063b9d9e59314610607576102dc565b8063818779ef146105e7578063821a74a514610607578063881a37c6146106255780638da5cb5b1461063857806391b7f5ed14610656578063958220e314610676576102dc565b8063392f37e9116102345780635c975abb116101ed57806370a08231116101c757806370a0823114610572578063715018a61461059257806375fb3225146105a75780637cb64759146105c7576102dc565b80635c975abb146105255780636352211e1461053f5780636a6278421461055f576102dc565b8063392f37e91461047c5780633cd8045e1461049c57806340c10f19146104bc57806342842e0e146104cf57806348a1e66b146104ef5780634f6ccce714610505576102dc565b806323b872dd1161028657806323b872dd146103b2578063247155ff146103d25780632a55205a146103f25780632eb4a7ab146104315780632f745c591461044757806332cb6b0c14610467576102dc565b806301ffc9a7146102e457806306fdde0314610319578063081812fc1461033b578063095ea7b3146103735780631249c58b146102dc57806318160ddd14610393576102dc565b366102dc576102da6108ac565b005b6102da6108ac565b3480156102f057600080fd5b506103046102ff36600461252a565b6108b9565b60405190151581526020015b60405180910390f35b34801561032557600080fd5b5061032e61091a565b604051610310919061259f565b34801561034757600080fd5b5061035b6103563660046125b2565b6109ac565b6040516001600160a01b039091168152602001610310565b34801561037f57600080fd5b506102da61038e3660046125e0565b6109d3565b34801561039f57600080fd5b506008545b604051908152602001610310565b3480156103be57600080fd5b506102da6103cd36600461260c565b610aed565b3480156103de57600080fd5b506103046103ed366004612692565b610b1e565b3480156103fe57600080fd5b5061041261040d3660046126e7565b610b9e565b604080516001600160a01b039093168352602083019190915201610310565b34801561043d57600080fd5b506103a460145481565b34801561045357600080fd5b506103a46104623660046125e0565b610c4c565b34801561047357600080fd5b506103a4606381565b34801561048857600080fd5b5060105461035b906001600160a01b031681565b3480156104a857600080fd5b5060115461035b906001600160a01b031681565b6102da6104ca3660046125e0565b610ce2565b3480156104db57600080fd5b506102da6104ea36600461260c565b610d43565b3480156104fb57600080fd5b506103a460135481565b34801561051157600080fd5b506103a46105203660046125b2565b610d5e565b34801561053157600080fd5b50600e546103049060ff1681565b34801561054b57600080fd5b5061035b61055a3660046125b2565b610df1565b6102da61056d366004612709565b610e51565b34801561057e57600080fd5b506103a461058d366004612709565b610e5f565b34801561059e57600080fd5b506102da610ee5565b3480156105b357600080fd5b506102da6105c23660046125b2565b610ef7565b3480156105d357600080fd5b506102da6105e23660046125b2565b610f04565b3480156105f357600080fd5b506102da610602366004612726565b610f11565b34801561061357600080fd5b506103a46106223660046125b2565b90565b6102da6106333660046127b2565b610f23565b34801561064457600080fd5b50600a546001600160a01b031661035b565b34801561066257600080fd5b506102da6106713660046125b2565b61100b565b6102da6106843660046125e0565b611018565b34801561069557600080fd5b5061032e611066565b3480156106aa57600080fd5b506103a4600f5481565b6102da6106c23660046125b2565b611075565b3480156106d357600080fd5b506102da6106e236600461288b565b61107f565b3480156106f357600080fd5b506102da6107023660046128e8565b61108a565b34801561071357600080fd5b506102da610722366004612997565b6110c2565b34801561073357600080fd5b506102da610742366004612709565b6110dd565b34801561075357600080fd5b5061032e6107623660046125b2565b611178565b34801561077357600080fd5b506102da610782366004612709565b6111ea565b34801561079357600080fd5b506103a460125481565b3480156107a957600080fd5b506102da6107b83660046125b2565b61125c565b6102da6107cb3660046125e0565b611269565b3480156107dc57600080fd5b506103046107eb3660046129b2565b6001600160a01b03918216600090815260056020908152604080832093909416825291909152205460ff1690565b34801561082557600080fd5b506102da610834366004612709565b61127f565b34801561084557600080fd5b506102da610854366004612709565b6112f5565b34801561086557600080fd5b506108796108743660046125b2565b611367565b60405161031091906129e0565b6102da610894366004612a24565b611458565b6102da6108a73660046127b2565b611514565b6108b7336001610ce2565b565b60006001600160e01b031982166380ac58cd60e01b14806108ea57506001600160e01b03198216635b5e139f60e01b145b8061090557506001600160e01b0319821663152a902d60e11b145b80610914575061091482611569565b92915050565b60606000805461092990612a57565b80601f016020809104026020016040519081016040528092919081815260200182805461095590612a57565b80156109a25780601f10610977576101008083540402835291602001916109a2565b820191906000526020600020905b81548152906001019060200180831161098557829003601f168201915b5050505050905090565b60006109b78261158e565b506000908152600460205260409020546001600160a01b031690565b60006109de82610df1565b9050806001600160a01b0316836001600160a01b031603610a505760405162461bcd60e51b815260206004820152602160248201527f4552433732313a20617070726f76616c20746f2063757272656e74206f776e656044820152603960f91b60648201526084015b60405180910390fd5b336001600160a01b0382161480610a6c5750610a6c81336107eb565b610ade5760405162461bcd60e51b815260206004820152603d60248201527f4552433732313a20617070726f76652063616c6c6572206973206e6f7420746f60448201527f6b656e206f776e6572206f7220617070726f76656420666f7220616c6c0000006064820152608401610a47565b610ae883836115ed565b505050565b610af7338261165b565b610b135760405162461bcd60e51b8152600401610a4790612a8b565b610ae88383836116d9565b6000610b96838380806020026020016040519081016040528093929190818152602001838360200280828437600092019190915250506014546040516bffffffffffffffffffffffff1960608b901b16602082015290925060340190506040516020818303038152906040528051906020012061184a565b949350505050565b6000828152600c602090815260408083208151808301909252546001600160a01b038116808352600160a01b9091046001600160601b0316928201929092528291610c13575060408051808201909152600b546001600160a01b0381168252600160a01b90046001600160601b031660208201525b602081015160009061271090610c32906001600160601b031687612aee565b610c3c9190612b0d565b91519350909150505b9250929050565b6000610c5783610e5f565b8210610cb95760405162461bcd60e51b815260206004820152602b60248201527f455243373231456e756d657261626c653a206f776e657220696e646578206f7560448201526a74206f6620626f756e647360a81b6064820152608401610a47565b506001600160a01b03919091166000908152600660209081526040808320938352929052205490565b600e5460ff16158015610cf757506012544210155b610d2c5760405162461bcd60e51b815260206004820152600660248201526514105554d15160d21b6044820152606401610a47565b610d3f8282610d3a84611367565b611860565b5050565b610ae88383836040518060200160405280600081525061108a565b6000610d6960085490565b8210610dcc5760405162461bcd60e51b815260206004820152602c60248201527f455243373231456e756d657261626c653a20676c6f62616c20696e646578206f60448201526b7574206f6620626f756e647360a01b6064820152608401610a47565b60088281548110610ddf57610ddf612b2f565b90600052602060002001549050919050565b6000818152600260205260408120546001600160a01b0316806109145760405162461bcd60e51b8152602060048201526018602482015277115490cdcc8c4e881a5b9d985b1a59081d1bdad95b88125160421b6044820152606401610a47565b610e5c816001610ce2565b50565b60006001600160a01b038216610ec95760405162461bcd60e51b815260206004820152602960248201527f4552433732313a2061646472657373207a65726f206973206e6f7420612076616044820152683634b21037bbb732b960b91b6064820152608401610a47565b506001600160a01b031660009081526003602052604090205490565b610eed611b72565b6108b76000611bcc565b610eff611b72565b601355565b610f0c611b72565b601455565b610f19611b72565b610d3f8282611c1e565b610f2b611b72565b60115460405160009182916001600160a01b039091169034908381818185875af1925050503d8060008114610f7c576040519150601f19603f3d011682016040523d82523d6000602084013e610f81565b606091505b50601154604051929450909250831515916001600160a01b0390911690600080516020612d2e83398151915290610fbb9085903490612b45565b60405180910390a360005b8481101561100357610ff186858381518110610fe457610fe4612b2f565b6020026020010151611d1b565b80610ffb81612b67565b915050610fc6565b505050505050565b611013611b72565b600f55565b60408051600180825281830190925260009160208083019080368337019050509050818160008151811061104e5761104e612b2f565b602002602001018181525050610ae883600183611514565b60606001805461092990612a57565b610e5c3382610ce2565b610d3f338383611d35565b611094338361165b565b6110b05760405162461bcd60e51b8152600401610a4790612a8b565b6110bc84848484611e03565b50505050565b6110ca611b72565b600e805460ff1916911515919091179055565b6110e5611b72565b604051479060009081906001600160a01b0385169084908381818185875af1925050503d8060008114611134576040519150601f19603f3d011682016040523d82523d6000602084013e611139565b606091505b5091509150811515846001600160a01b0316600080516020612d2e833981519152838660405161116a929190612b45565b60405180910390a350505050565b60105460405163295d33a960e21b8152600481018390526060916001600160a01b03169063a574cea490602401600060405180830381865afa1580156111c2573d6000803e3d6000fd5b505050506040513d6000823e601f3d908101601f191682016040526109149190810190612b80565b6111f2611b72565b6001600160a01b03811661123a5760405162461bcd60e51b815260206004820152600f60248201526e4e4f205a45524f204144445245535360881b6044820152606401610a47565b601180546001600160a01b0319166001600160a01b0392909216919091179055565b611264611b72565b601255565b611271611b72565b610d3f828261063384611367565b611287611b72565b6001600160a01b0381166112ec5760405162461bcd60e51b815260206004820152602660248201527f4f776e61626c653a206e6577206f776e657220697320746865207a65726f206160448201526564647265737360d01b6064820152608401610a47565b610e5c81611bcc565b6112fd611b72565b6001600160a01b0381166113455760405162461bcd60e51b815260206004820152600f60248201526e4e4f205a45524f204144445245535360881b6044820152606401610a47565b601080546001600160a01b0319166001600160a01b0392909216919091179055565b60608167ffffffffffffffff8111156113825761138261276b565b6040519080825280602002602001820160405280156113ab578160200160208202803683370190505b50905060005b8281101561145257424433836040516020016113f89493929190938452602084019290925260601b6bffffffffffffffffffffffff19166040830152605482015260740190565b6040516020818303038152906040528051906020012060001c6fffffffffffffffffffffffffffffffff1682828151811061143557611435612b2f565b60209081029190910101528061144a81612b67565b9150506113b1565b50919050565b611463338383610b1e565b6114af5760405162461bcd60e51b815260206004820152601c60248201527f596f7520617265206e6f74206f6e2074686520616c6c6f776c697374000000006044820152606401610a47565b600e5460ff161580156114c457506013544210155b6115065760405162461bcd60e51b8152602060048201526013602482015272141c995b5a5b9d081b9bdd081cdd185c9d1959606a1b6044820152606401610a47565b610ae83384610d3a86611367565b600e5460ff1615801561152957506012544210155b61155e5760405162461bcd60e51b815260206004820152600660248201526514105554d15160d21b6044820152606401610a47565b610ae8838383611860565b60006001600160e01b0319821663152a902d60e11b1480610914575061091482611e36565b6000818152600260205260409020546001600160a01b0316610e5c5760405162461bcd60e51b8152602060048201526018602482015277115490cdcc8c4e881a5b9d985b1a59081d1bdad95b88125160421b6044820152606401610a47565b600081815260046020526040902080546001600160a01b0319166001600160a01b038416908117909155819061162282610df1565b6001600160a01b03167f8c5be1e5ebec7d5bd14f71427d1e84f3dd0314c0f7b2291e5b200ac8c7c3b92560405160405180910390a45050565b60008061166783610df1565b9050806001600160a01b0316846001600160a01b031614806116ae57506001600160a01b0380821660009081526005602090815260408083209388168352929052205460ff165b80610b965750836001600160a01b03166116c7846109ac565b6001600160a01b031614949350505050565b826001600160a01b03166116ec82610df1565b6001600160a01b0316146117125760405162461bcd60e51b8152600401610a4790612bf7565b6001600160a01b0382166117745760405162461bcd60e51b8152602060048201526024808201527f4552433732313a207472616e7366657220746f20746865207a65726f206164646044820152637265737360e01b6064820152608401610a47565b6117818383836001611e5b565b826001600160a01b031661179482610df1565b6001600160a01b0316146117ba5760405162461bcd60e51b8152600401610a4790612bf7565b600081815260046020908152604080832080546001600160a01b03199081169091556001600160a01b0387811680865260038552838620805460001901905590871680865283862080546001019055868652600290945282852080549092168417909155905184937fddf252ad1be2c89b69c2b068fc378daa952ba7f163c4a11628f55a4df523b3ef91a4505050565b6000826118578584611f8f565b14949350505050565b611868611fdc565b81600f546118769190612aee565b3410156118b35760405162461bcd60e51b815260206004820152600b60248201526a57524f4e4720505249434560a81b6044820152606401610a47565b818151146119115760405162461bcd60e51b815260206004820152602560248201527f454e54524f5059204c454e47544820444f45534e2754204d41544348205155416044820152644e5449545960d81b6064820152608401610a47565b81600114806119205750816003145b8061192b5750816005145b6119885760405162461bcd60e51b815260206004820152602860248201527f43414e2754204d494e542042455349444553205155414e54495459204f4620316044820152672c2033204f52203560c01b6064820152608401610a47565b60638261199460085490565b61199e9190612c3c565b11156119f9576008546119b2906063612c54565b9150816000036119f95760405162461bcd60e51b81526020600482015260126024820152711350560814d5541413164814915050d2115160721b6044820152606401610a47565b6000600f5483611a099190612aee565b60115460405191925060009182916001600160a01b03169084908381818185875af1925050503d8060008114611a5b576040519150601f19603f3d011682016040523d82523d6000602084013e611a60565b606091505b50601154604051929450909250831515916001600160a01b0390911690600080516020612d2e83398151915290611a9a9085908890612b45565b60405180910390a360005b85811015611ad557611ac387868381518110610fe457610fe4612b2f565b80611acd81612b67565b915050611aa5565b5034831015611b655733611ae98434612c54565b604051600081818185875af1925050503d8060008114611b25576040519150601f19603f3d011682016040523d82523d6000602084013e611b2a565b606091505b50909250905081151533600080516020612d2e83398151915283611b4e8734612c54565b604051611b5c929190612b45565b60405180910390a35b505050610ae86001600d55565b600a546001600160a01b031633146108b75760405162461bcd60e51b815260206004820181905260248201527f4f776e61626c653a2063616c6c6572206973206e6f7420746865206f776e65726044820152606401610a47565b600a80546001600160a01b038381166001600160a01b0319831681179093556040519116919082907f8be0079c531659141344cd1fd0a4f28419497f9722a3daafe3b4186f6b6457e090600090a35050565b6127106001600160601b0382161115611c8c5760405162461bcd60e51b815260206004820152602a60248201527f455243323938313a20726f79616c7479206665652077696c6c206578636565646044820152692073616c65507269636560b01b6064820152608401610a47565b6001600160a01b038216611ce25760405162461bcd60e51b815260206004820152601960248201527f455243323938313a20696e76616c6964207265636569766572000000000000006044820152606401610a47565b604080518082019091526001600160a01b039092168083526001600160601b039091166020909201829052600160a01b90910217600b55565b610d3f828260405180602001604052806000815250612035565b816001600160a01b0316836001600160a01b031603611d965760405162461bcd60e51b815260206004820152601960248201527f4552433732313a20617070726f766520746f2063616c6c6572000000000000006044820152606401610a47565b6001600160a01b03838116600081815260056020908152604080832094871680845294825291829020805460ff191686151590811790915591519182527f17307eab39ab6107e8899845ad3d59bd9653f200f220920489ca2b5937696c31910160405180910390a3505050565b611e0e8484846116d9565b611e1a84848484612068565b6110bc5760405162461bcd60e51b8152600401610a4790612c6b565b60006001600160e01b0319821663780e9d6360e01b1480610914575061091482612169565b6001811115611eca5760405162461bcd60e51b815260206004820152603560248201527f455243373231456e756d657261626c653a20636f6e7365637574697665207472604482015274185b9cd9995c9cc81b9bdd081cdd5c1c1bdc9d1959605a1b6064820152608401610a47565b816001600160a01b038516611f2657611f2181600880546000838152600960205260408120829055600182018355919091527ff3f7a9fe364faab93b216da50a3214154f22a0a2b415b23a84c8169e8b636ee30155565b611f49565b836001600160a01b0316856001600160a01b031614611f4957611f4985826121b9565b6001600160a01b038416611f6557611f6081612256565b611f88565b846001600160a01b0316846001600160a01b031614611f8857611f888482612305565b5050505050565b600081815b8451811015611fd457611fc082868381518110611fb357611fb3612b2f565b6020026020010151612349565b915080611fcc81612b67565b915050611f94565b509392505050565b6002600d540361202e5760405162461bcd60e51b815260206004820152601f60248201527f5265656e7472616e637947756172643a207265656e7472616e742063616c6c006044820152606401610a47565b6002600d55565b61203f838361237b565b61204c6000848484612068565b610ae85760405162461bcd60e51b8152600401610a4790612c6b565b60006001600160a01b0384163b1561215e57604051630a85bd0160e11b81526001600160a01b0385169063150b7a02906120ac903390899088908890600401612cbd565b6020604051808303816000875af19250505080156120e7575060408051601f3d908101601f191682019092526120e491810190612cfa565b60015b612144573d808015612115576040519150601f19603f3d011682016040523d82523d6000602084013e61211a565b606091505b50805160000361213c5760405162461bcd60e51b8152600401610a4790612c6b565b805181602001fd5b6001600160e01b031916630a85bd0160e11b149050610b96565b506001949350505050565b60006001600160e01b031982166380ac58cd60e01b148061219a57506001600160e01b03198216635b5e139f60e01b145b8061091457506301ffc9a760e01b6001600160e01b0319831614610914565b600060016121c684610e5f565b6121d09190612c54565b600083815260076020526040902054909150808214612223576001600160a01b03841660009081526006602090815260408083208584528252808320548484528184208190558352600790915290208190555b5060009182526007602090815260408084208490556001600160a01b039094168352600681528383209183525290812055565b60085460009061226890600190612c54565b6000838152600960205260408120546008805493945090928490811061229057612290612b2f565b9060005260206000200154905080600883815481106122b1576122b1612b2f565b60009182526020808320909101929092558281526009909152604080822084905585825281205560088054806122e9576122e9612d17565b6001900381819060005260206000200160009055905550505050565b600061231083610e5f565b6001600160a01b039093166000908152600660209081526040808320868452825280832085905593825260079052919091209190915550565b6000818310612365576000828152602084905260409020612374565b60008381526020839052604090205b9392505050565b6001600160a01b0382166123d15760405162461bcd60e51b815260206004820181905260248201527f4552433732313a206d696e7420746f20746865207a65726f20616464726573736044820152606401610a47565b6000818152600260205260409020546001600160a01b0316156124365760405162461bcd60e51b815260206004820152601c60248201527f4552433732313a20746f6b656e20616c7265616479206d696e746564000000006044820152606401610a47565b612444600083836001611e5b565b6000818152600260205260409020546001600160a01b0316156124a95760405162461bcd60e51b815260206004820152601c60248201527f4552433732313a20746f6b656e20616c7265616479206d696e746564000000006044820152606401610a47565b6001600160a01b038216600081815260036020908152604080832080546001019055848352600290915280822080546001600160a01b0319168417905551839291907fddf252ad1be2c89b69c2b068fc378daa952ba7f163c4a11628f55a4df523b3ef908290a45050565b6001600160e01b031981168114610e5c57600080fd5b60006020828403121561253c57600080fd5b813561237481612514565b60005b8381101561256257818101518382015260200161254a565b838111156110bc5750506000910152565b6000815180845261258b816020860160208601612547565b601f01601f19169290920160200192915050565b6020815260006123746020830184612573565b6000602082840312156125c457600080fd5b5035919050565b6001600160a01b0381168114610e5c57600080fd5b600080604083850312156125f357600080fd5b82356125fe816125cb565b946020939093013593505050565b60008060006060848603121561262157600080fd5b833561262c816125cb565b9250602084013561263c816125cb565b929592945050506040919091013590565b60008083601f84011261265f57600080fd5b50813567ffffffffffffffff81111561267757600080fd5b6020830191508360208260051b8501011115610c4557600080fd5b6000806000604084860312156126a757600080fd5b83356126b2816125cb565b9250602084013567ffffffffffffffff8111156126ce57600080fd5b6126da8682870161264d565b9497909650939450505050565b600080604083850312156126fa57600080fd5b50508035926020909101359150565b60006020828403121561271b57600080fd5b8135612374816125cb565b6000806040838503121561273957600080fd5b8235612744816125cb565b915060208301356001600160601b038116811461276057600080fd5b809150509250929050565b634e487b7160e01b600052604160045260246000fd5b604051601f8201601f1916810167ffffffffffffffff811182821017156127aa576127aa61276b565b604052919050565b6000806000606084860312156127c757600080fd5b83356127d2816125cb565b92506020848101359250604085013567ffffffffffffffff808211156127f757600080fd5b818701915087601f83011261280b57600080fd5b81358181111561281d5761281d61276b565b8060051b915061282e848301612781565b818152918301840191848101908a84111561284857600080fd5b938501935b838510156128665784358252938501939085019061284d565b8096505050505050509250925092565b8035801515811461288657600080fd5b919050565b6000806040838503121561289e57600080fd5b82356128a9816125cb565b91506128b760208401612876565b90509250929050565b600067ffffffffffffffff8211156128da576128da61276b565b50601f01601f191660200190565b600080600080608085870312156128fe57600080fd5b8435612909816125cb565b93506020850135612919816125cb565b925060408501359150606085013567ffffffffffffffff81111561293c57600080fd5b8501601f8101871361294d57600080fd5b803561296061295b826128c0565b612781565b81815288602083850101111561297557600080fd5b8160208401602083013760006020838301015280935050505092959194509250565b6000602082840312156129a957600080fd5b61237482612876565b600080604083850312156129c557600080fd5b82356129d0816125cb565b91506020830135612760816125cb565b6020808252825182820181905260009190848201906040850190845b81811015612a18578351835292840192918401916001016129fc565b50909695505050505050565b600080600060408486031215612a3957600080fd5b83359250602084013567ffffffffffffffff8111156126ce57600080fd5b600181811c90821680612a6b57607f821691505b60208210810361145257634e487b7160e01b600052602260045260246000fd5b6020808252602d908201527f4552433732313a2063616c6c6572206973206e6f7420746f6b656e206f776e6560408201526c1c881bdc88185c1c1c9bdd9959609a1b606082015260800190565b634e487b7160e01b600052601160045260246000fd5b6000816000190483118215151615612b0857612b08612ad8565b500290565b600082612b2a57634e487b7160e01b600052601260045260246000fd5b500490565b634e487b7160e01b600052603260045260246000fd5b604081526000612b586040830185612573565b90508260208301529392505050565b600060018201612b7957612b79612ad8565b5060010190565b600060208284031215612b9257600080fd5b815167ffffffffffffffff811115612ba957600080fd5b8201601f81018413612bba57600080fd5b8051612bc861295b826128c0565b818152856020838501011115612bdd57600080fd5b612bee826020830160208601612547565b95945050505050565b60208082526025908201527f4552433732313a207472616e736665722066726f6d20696e636f72726563742060408201526437bbb732b960d91b606082015260800190565b60008219821115612c4f57612c4f612ad8565b500190565b600082821015612c6657612c66612ad8565b500390565b60208082526032908201527f4552433732313a207472616e7366657220746f206e6f6e20455243373231526560408201527131b2b4bb32b91034b6b83632b6b2b73a32b960711b606082015260800190565b6001600160a01b0385811682528416602082015260408101839052608060608201819052600090612cf090830184612573565b9695505050505050565b600060208284031215612d0c57600080fd5b815161237481612514565b634e487b7160e01b600052603160045260246000fdfeb08889abce443443404b2caf69aa3ccfb9ebfdf1ad2a634d06e11e24c1067938a26469706673582212208fbeccf6daa0283c0c845e0e8fa948497061103abf1b9549503542a8620e93d264736f6c634300080f0033",
  "linkReferences": {},
  "deployedLinkReferences": {}
}