{
  "_format": "hh-sol-artifact-1",
  "contractName": "shaDoAW",
  "sourceName": "contracts/shaDoAW.sol",
  "abi": [
    {
      "inputs": [
        {
          "internalType": "address",
          "name": "metadata_",
          "type": "address"
        }
      ],
      "stateMutability": "nonpayable",
      "type": "constructor"
    },
    {
      "inputs": [],
      "name": "ApprovalCallerNotOwnerNorApproved",
      "type": "error"
    },
    {
      "inputs": [],
      "name": "ApprovalQueryForNonexistentToken",
      "type": "error"
    },
    {
      "inputs": [],
      "name": "BalanceQueryForZeroAddress",
      "type": "error"
    },
    {
      "inputs": [],
      "name": "InvalidQueryRange",
      "type": "error"
    },
    {
      "inputs": [],
      "name": "MintERC2309QuantityExceedsLimit",
      "type": "error"
    },
    {
      "inputs": [],
      "name": "MintToZeroAddress",
      "type": "error"
    },
    {
      "inputs": [],
      "name": "MintZeroQuantity",
      "type": "error"
    },
    {
      "inputs": [],
      "name": "OwnerQueryForNonexistentToken",
      "type": "error"
    },
    {
      "inputs": [],
      "name": "OwnershipNotInitializedForExtraData",
      "type": "error"
    },
    {
      "inputs": [],
      "name": "TransferCallerNotOwnerNorApproved",
      "type": "error"
    },
    {
      "inputs": [],
      "name": "TransferFromIncorrectOwner",
      "type": "error"
    },
    {
      "inputs": [],
      "name": "TransferToNonERC721ReceiverImplementer",
      "type": "error"
    },
    {
      "inputs": [],
      "name": "TransferToZeroAddress",
      "type": "error"
    },
    {
      "inputs": [],
      "name": "URIQueryForNonexistentToken",
      "type": "error"
    },
    {
      "anonymous": false,
      "inputs": [
        {
          "indexed": true,
          "internalType": "address",
          "name": "owner",
          "type": "address"
        },
        {
          "indexed": true,
          "internalType": "address",
          "name": "approved",
          "type": "address"
        },
        {
          "indexed": true,
          "internalType": "uint256",
          "name": "tokenId",
          "type": "uint256"
        }
      ],
      "name": "Approval",
      "type": "event"
    },
    {
      "anonymous": false,
      "inputs": [
        {
          "indexed": true,
          "internalType": "address",
          "name": "owner",
          "type": "address"
        },
        {
          "indexed": true,
          "internalType": "address",
          "name": "operator",
          "type": "address"
        },
        {
          "indexed": false,
          "internalType": "bool",
          "name": "approved",
          "type": "bool"
        }
      ],
      "name": "ApprovalForAll",
      "type": "event"
    },
    {
      "anonymous": false,
      "inputs": [
        {
          "indexed": true,
          "internalType": "uint256",
          "name": "fromTokenId",
          "type": "uint256"
        },
        {
          "indexed": false,
          "internalType": "uint256",
          "name": "toTokenId",
          "type": "uint256"
        },
        {
          "indexed": true,
          "internalType": "address",
          "name": "from",
          "type": "address"
        },
        {
          "indexed": true,
          "internalType": "address",
          "name": "to",
          "type": "address"
        }
      ],
      "name": "ConsecutiveTransfer",
      "type": "event"
    },
    {
      "anonymous": false,
      "inputs": [
        {
          "indexed": true,
          "internalType": "address",
          "name": "previousOwner",
          "type": "address"
        },
        {
          "indexed": true,
          "internalType": "address",
          "name": "newOwner",
          "type": "address"
        }
      ],
      "name": "OwnershipTransferred",
      "type": "event"
    },
    {
      "anonymous": false,
      "inputs": [
        {
          "indexed": true,
          "internalType": "address",
          "name": "from",
          "type": "address"
        },
        {
          "indexed": true,
          "internalType": "address",
          "name": "to",
          "type": "address"
        },
        {
          "indexed": true,
          "internalType": "uint256",
          "name": "tokenId",
          "type": "uint256"
        }
      ],
      "name": "Transfer",
      "type": "event"
    },
    {
      "stateMutability": "payable",
      "type": "fallback"
    },
    {
      "inputs": [
        {
          "internalType": "address[]",
          "name": "to",
          "type": "address[]"
        }
      ],
      "name": "adminMint",
      "outputs": [],
      "stateMutability": "nonpayable",
      "type": "function"
    },
    {
      "inputs": [
        {
          "internalType": "address",
          "name": "to",
          "type": "address"
        },
        {
          "internalType": "uint256",
          "name": "tokenId",
          "type": "uint256"
        }
      ],
      "name": "approve",
      "outputs": [],
      "stateMutability": "payable",
      "type": "function"
    },
    {
      "inputs": [
        {
          "internalType": "address",
          "name": "owner",
          "type": "address"
        }
      ],
      "name": "balanceOf",
      "outputs": [
        {
          "internalType": "uint256",
          "name": "",
          "type": "uint256"
        }
      ],
      "stateMutability": "view",
      "type": "function"
    },
    {
      "inputs": [
        {
          "internalType": "uint256",
          "name": "tokenId",
          "type": "uint256"
        }
      ],
      "name": "explicitOwnershipOf",
      "outputs": [
        {
          "components": [
            {
              "internalType": "address",
              "name": "addr",
              "type": "address"
            },
            {
              "internalType": "uint64",
              "name": "startTimestamp",
              "type": "uint64"
            },
            {
              "internalType": "bool",
              "name": "burned",
              "type": "bool"
            },
            {
              "internalType": "uint24",
              "name": "extraData",
              "type": "uint24"
            }
          ],
          "internalType": "struct IERC721A.TokenOwnership",
          "name": "",
          "type": "tuple"
        }
      ],
      "stateMutability": "view",
      "type": "function"
    },
    {
      "inputs": [
        {
          "internalType": "uint256[]",
          "name": "tokenIds",
          "type": "uint256[]"
        }
      ],
      "name": "explicitOwnershipsOf",
      "outputs": [
        {
          "components": [
            {
              "internalType": "address",
              "name": "addr",
              "type": "address"
            },
            {
              "internalType": "uint64",
              "name": "startTimestamp",
              "type": "uint64"
            },
            {
              "internalType": "bool",
              "name": "burned",
              "type": "bool"
            },
            {
              "internalType": "uint24",
              "name": "extraData",
              "type": "uint24"
            }
          ],
          "internalType": "struct IERC721A.TokenOwnership[]",
          "name": "",
          "type": "tuple[]"
        }
      ],
      "stateMutability": "view",
      "type": "function"
    },
    {
      "inputs": [
        {
          "internalType": "uint256",
          "name": "tokenId",
          "type": "uint256"
        }
      ],
      "name": "getApproved",
      "outputs": [
        {
          "internalType": "address",
          "name": "",
          "type": "address"
        }
      ],
      "stateMutability": "view",
      "type": "function"
    },
    {
      "inputs": [
        {
          "internalType": "address",
          "name": "owner",
          "type": "address"
        },
        {
          "internalType": "address",
          "name": "operator",
          "type": "address"
        }
      ],
      "name": "isApprovedForAll",
      "outputs": [
        {
          "internalType": "bool",
          "name": "",
          "type": "bool"
        }
      ],
      "stateMutability": "view",
      "type": "function"
    },
    {
      "inputs": [],
      "name": "metadata",
      "outputs": [
        {
          "internalType": "address",
          "name": "",
          "type": "address"
        }
      ],
      "stateMutability": "view",
      "type": "function"
    },
    {
      "inputs": [],
      "name": "name",
      "outputs": [
        {
          "internalType": "string",
          "name": "",
          "type": "string"
        }
      ],
      "stateMutability": "view",
      "type": "function"
    },
    {
      "inputs": [],
      "name": "owner",
      "outputs": [
        {
          "internalType": "address",
          "name": "",
          "type": "address"
        }
      ],
      "stateMutability": "view",
      "type": "function"
    },
    {
      "inputs": [
        {
          "internalType": "uint256",
          "name": "tokenId",
          "type": "uint256"
        }
      ],
      "name": "ownerOf",
      "outputs": [
        {
          "internalType": "address",
          "name": "",
          "type": "address"
        }
      ],
      "stateMutability": "view",
      "type": "function"
    },
    {
      "inputs": [],
      "name": "renounceOwnership",
      "outputs": [],
      "stateMutability": "nonpayable",
      "type": "function"
    },
    {
      "inputs": [
        {
          "internalType": "address",
          "name": "from",
          "type": "address"
        },
        {
          "internalType": "address",
          "name": "to",
          "type": "address"
        },
        {
          "internalType": "uint256",
          "name": "tokenId",
          "type": "uint256"
        }
      ],
      "name": "safeTransferFrom",
      "outputs": [],
      "stateMutability": "payable",
      "type": "function"
    },
    {
      "inputs": [
        {
          "internalType": "address",
          "name": "from",
          "type": "address"
        },
        {
          "internalType": "address",
          "name": "to",
          "type": "address"
        },
        {
          "internalType": "uint256",
          "name": "tokenId",
          "type": "uint256"
        },
        {
          "internalType": "bytes",
          "name": "_data",
          "type": "bytes"
        }
      ],
      "name": "safeTransferFrom",
      "outputs": [],
      "stateMutability": "payable",
      "type": "function"
    },
    {
      "inputs": [
        {
          "internalType": "address",
          "name": "operator",
          "type": "address"
        },
        {
          "internalType": "bool",
          "name": "approved",
          "type": "bool"
        }
      ],
      "name": "setApprovalForAll",
      "outputs": [],
      "stateMutability": "nonpayable",
      "type": "function"
    },
    {
      "inputs": [
        {
          "internalType": "address",
          "name": "metadata_",
          "type": "address"
        }
      ],
      "name": "setMetadata",
      "outputs": [],
      "stateMutability": "nonpayable",
      "type": "function"
    },
    {
      "inputs": [
        {
          "internalType": "bytes4",
          "name": "interfaceId",
          "type": "bytes4"
        }
      ],
      "name": "supportsInterface",
      "outputs": [
        {
          "internalType": "bool",
          "name": "",
          "type": "bool"
        }
      ],
      "stateMutability": "view",
      "type": "function"
    },
    {
      "inputs": [],
      "name": "symbol",
      "outputs": [
        {
          "internalType": "string",
          "name": "",
          "type": "string"
        }
      ],
      "stateMutability": "view",
      "type": "function"
    },
    {
      "inputs": [
        {
          "internalType": "uint256",
          "name": "id",
          "type": "uint256"
        }
      ],
      "name": "tokenURI",
      "outputs": [
        {
          "internalType": "string",
          "name": "",
          "type": "string"
        }
      ],
      "stateMutability": "view",
      "type": "function"
    },
    {
      "inputs": [
        {
          "internalType": "address",
          "name": "owner",
          "type": "address"
        }
      ],
      "name": "tokensOfOwner",
      "outputs": [
        {
          "internalType": "uint256[]",
          "name": "",
          "type": "uint256[]"
        }
      ],
      "stateMutability": "view",
      "type": "function"
    },
    {
      "inputs": [
        {
          "internalType": "address",
          "name": "owner",
          "type": "address"
        },
        {
          "internalType": "uint256",
          "name": "start",
          "type": "uint256"
        },
        {
          "internalType": "uint256",
          "name": "stop",
          "type": "uint256"
        }
      ],
      "name": "tokensOfOwnerIn",
      "outputs": [
        {
          "internalType": "uint256[]",
          "name": "",
          "type": "uint256[]"
        }
      ],
      "stateMutability": "view",
      "type": "function"
    },
    {
      "inputs": [],
      "name": "totalSupply",
      "outputs": [
        {
          "internalType": "uint256",
          "name": "",
          "type": "uint256"
        }
      ],
      "stateMutability": "view",
      "type": "function"
    },
    {
      "inputs": [
        {
          "internalType": "address",
          "name": "from",
          "type": "address"
        },
        {
          "internalType": "address",
          "name": "to",
          "type": "address"
        },
        {
          "internalType": "uint256",
          "name": "tokenId",
          "type": "uint256"
        }
      ],
      "name": "transferFrom",
      "outputs": [],
      "stateMutability": "payable",
      "type": "function"
    },
    {
      "inputs": [
        {
          "internalType": "address",
          "name": "newOwner",
          "type": "address"
        }
      ],
      "name": "transferOwnership",
      "outputs": [],
      "stateMutability": "nonpayable",
      "type": "function"
    },
    {
      "stateMutability": "payable",
      "type": "receive"
    }
  ],
  "bytecode": "0x60806040523480156200001157600080fd5b5060405162001d5038038062001d50833981016040819052620000349162000123565b6040518060400160405280600b81526020016a446f6157736861646f617760a81b81525060405180604001604052806007815260200166736861446f415760c81b8152508160029081620000899190620001fa565b506003620000988282620001fa565b5050600160005550620000ab33620000d1565b600980546001600160a01b0319166001600160a01b0392909216919091179055620002c6565b600880546001600160a01b038381166001600160a01b0319831681179093556040519116919082907f8be0079c531659141344cd1fd0a4f28419497f9722a3daafe3b4186f6b6457e090600090a35050565b6000602082840312156200013657600080fd5b81516001600160a01b03811681146200014e57600080fd5b9392505050565b634e487b7160e01b600052604160045260246000fd5b600181811c908216806200018057607f821691505b602082108103620001a157634e487b7160e01b600052602260045260246000fd5b50919050565b601f821115620001f557600081815260208120601f850160051c81016020861015620001d05750805b601f850160051c820191505b81811015620001f157828155600101620001dc565b5050505b505050565b81516001600160401b0381111562000216576200021662000155565b6200022e816200022784546200016b565b84620001a7565b602080601f8311600181146200026657600084156200024d5750858301515b600019600386901b1c1916600185901b178555620001f1565b600085815260208120601f198616915b82811015620002975788860151825594840194600190910190840162000276565b5085821015620002b65787850151600019600388901b60f8161c191681555b5050505050600190811b01905550565b611a7a80620002d66000396000f3fe60806040526004361061014f5760003560e01c8063715018a6116100b6578063b88d4fde1161006f578063b88d4fde1461041e578063c23dc68f14610431578063c87b56dd1461045e578063e985e9c51461047e578063f2fde38b146104c7578063f3cb8385146104e757610192565b8063715018a6146103695780638462151c1461037e5780638da5cb5b146103ab57806395d89b41146103c957806399a2557a146103de578063a22cb465146103fe57610192565b806323b872dd1161010857806323b872dd146102b6578063392f37e9146102c957806342842e0e146102e95780635bbb2177146102fc5780636352211e1461032957806370a082311461034957610192565b806301ffc9a7146101cb57806306fdde0314610200578063081812fc14610222578063095ea7b31461025a57806318160ddd1461026f57806321cbb5bd1461029657610192565b366101925760405162461bcd60e51b815260206004820152600e60248201526d1393c81112549150d50814d1539160921b60448201526064015b60405180910390fd5b60405162461bcd60e51b815260206004820152600e60248201526d1393c81112549150d50814d1539160921b6044820152606401610189565b3480156101d757600080fd5b506101eb6101e636600461141b565b610507565b60405190151581526020015b60405180910390f35b34801561020c57600080fd5b5061021561054d565b6040516101f79190611490565b34801561022e57600080fd5b5061024261023d3660046114a3565b6105df565b6040516001600160a01b0390911681526020016101f7565b61026d6102683660046114d8565b610623565b005b34801561027b57600080fd5b5060015460005403600019015b6040519081526020016101f7565b3480156102a257600080fd5b5061026d6102b1366004611549565b6106c3565b61026d6102c43660046115f6565b610711565b3480156102d557600080fd5b50600954610242906001600160a01b031681565b61026d6102f73660046115f6565b6108a9565b34801561030857600080fd5b5061031c610317366004611632565b6108c9565b6040516101f791906116e4565b34801561033557600080fd5b506102426103443660046114a3565b610995565b34801561035557600080fd5b50610288610364366004611726565b6109a0565b34801561037557600080fd5b5061026d6109ef565b34801561038a57600080fd5b5061039e610399366004611726565b610a03565b6040516101f79190611741565b3480156103b757600080fd5b506008546001600160a01b0316610242565b3480156103d557600080fd5b50610215610b0c565b3480156103ea57600080fd5b5061039e6103f9366004611779565b610b1b565b34801561040a57600080fd5b5061026d6104193660046117ac565b610ca3565b61026d61042c366004611810565b610d0f565b34801561043d57600080fd5b5061045161044c3660046114a3565b610d59565b6040516101f791906118bb565b34801561046a57600080fd5b506102156104793660046114a3565b610de1565b34801561048a57600080fd5b506101eb6104993660046118c9565b6001600160a01b03918216600090815260076020908152604080832093909416825291909152205460ff1690565b3480156104d357600080fd5b5061026d6104e2366004611726565b610e53565b3480156104f357600080fd5b5061026d610502366004611726565b610ecc565b60006001600160e01b031982166380ac58cd60e01b148061053857506001600160e01b03198216635b5e139f60e01b145b80610547575061054782610f3e565b92915050565b60606002805461055c906118fc565b80601f0160208091040260200160405190810160405280929190818152602001828054610588906118fc565b80156105d55780601f106105aa576101008083540402835291602001916105d5565b820191906000526020600020905b8154815290600101906020018083116105b857829003601f168201915b5050505050905090565b60006105ea82610f8c565b610607576040516333d1c03960e21b815260040160405180910390fd5b506000908152600660205260409020546001600160a01b031690565b600061062e82610995565b9050336001600160a01b038216146106675761064a8133610499565b610667576040516367d9dca160e11b815260040160405180910390fd5b60008281526006602052604080822080546001600160a01b0319166001600160a01b0387811691821790925591518593918516917f8c5be1e5ebec7d5bd14f71427d1e84f3dd0314c0f7b2291e5b200ac8c7c3b92591a4505050565b6106cb610fc1565b60005b815181101561070d576106fb8282815181106106ec576106ec611936565b6020026020010151600161101b565b806107058161194c565b9150506106ce565b5050565b600061071c82611035565b9050836001600160a01b0316816001600160a01b03161461074f5760405162a1148160e81b815260040160405180910390fd5b60008281526006602052604090208054338082146001600160a01b0388169091141761079c5761077f8633610499565b61079c57604051632ce44b5f60e11b815260040160405180910390fd5b6001600160a01b0385166107c357604051633a954ecd60e21b815260040160405180910390fd5b80156107ce57600082555b6001600160a01b038681166000908152600560205260408082208054600019019055918716808252919020805460010190554260a01b17600160e11b17600085815260046020526040812091909155600160e11b841690036108605760018401600081815260046020526040812054900361085e57600054811461085e5760008181526004602052604090208490555b505b83856001600160a01b0316876001600160a01b03167fddf252ad1be2c89b69c2b068fc378daa952ba7f163c4a11628f55a4df523b3ef60405160405180910390a4505050505050565b6108c483838360405180602001604052806000815250610d0f565b505050565b60608160008167ffffffffffffffff8111156108e7576108e7611502565b60405190808252806020026020018201604052801561093957816020015b6040805160808101825260008082526020808301829052928201819052606082015282526000199092019101816109055790505b50905060005b82811461098c5761096786868381811061095b5761095b611936565b90506020020135610d59565b82828151811061097957610979611936565b602090810291909101015260010161093f565b50949350505050565b600061054782611035565b60006001600160a01b0382166109c9576040516323d3ad8160e21b815260040160405180910390fd5b506001600160a01b031660009081526005602052604090205467ffffffffffffffff1690565b6109f7610fc1565b610a0160006110a4565b565b60606000806000610a13856109a0565b905060008167ffffffffffffffff811115610a3057610a30611502565b604051908082528060200260200182016040528015610a59578160200160208202803683370190505b509050610a8660408051608081018252600080825260208201819052918101829052606081019190915290565b60015b838614610b0057610a99816110f6565b91508160400151610af85781516001600160a01b031615610ab957815194505b876001600160a01b0316856001600160a01b031603610af85780838780600101985081518110610aeb57610aeb611936565b6020026020010181815250505b600101610a89565b50909695505050505050565b60606003805461055c906118fc565b6060818310610b3d57604051631960ccad60e11b815260040160405180910390fd5b600080610b4960005490565b90506001851015610b5957600194505b80841115610b65578093505b6000610b70876109a0565b905084861015610b8f5785850381811015610b89578091505b50610b93565b5060005b60008167ffffffffffffffff811115610bae57610bae611502565b604051908082528060200260200182016040528015610bd7578160200160208202803683370190505b50905081600003610bed579350610c9c92505050565b6000610bf888610d59565b905060008160400151610c09575080515b885b888114158015610c1b5750848714155b15610c9057610c29816110f6565b92508260400151610c885782516001600160a01b031615610c4957825191505b8a6001600160a01b0316826001600160a01b031603610c885780848880600101995081518110610c7b57610c7b611936565b6020026020010181815250505b600101610c0b565b50505092835250909150505b9392505050565b3360008181526007602090815260408083206001600160a01b03871680855290835292819020805460ff191686151590811790915590519081529192917f17307eab39ab6107e8899845ad3d59bd9653f200f220920489ca2b5937696c31910160405180910390a35050565b610d1a848484610711565b6001600160a01b0383163b15610d5357610d3684848484611132565b610d53576040516368d2bf6b60e11b815260040160405180910390fd5b50505050565b6040805160808101825260008082526020820181905291810182905260608101919091526040805160808101825260008082526020820181905291810182905260608101919091526001831080610db257506000548310155b15610dbd5792915050565b610dc6836110f6565b9050806040015115610dd85792915050565b610c9c8361121d565b600954604051630252208560e01b8152600481018390526060916001600160a01b031690630252208590602401600060405180830381865afa158015610e2b573d6000803e3d6000fd5b505050506040513d6000823e601f3d908101601f191682016040526105479190810190611973565b610e5b610fc1565b6001600160a01b038116610ec05760405162461bcd60e51b815260206004820152602660248201527f4f776e61626c653a206e6577206f776e657220697320746865207a65726f206160448201526564647265737360d01b6064820152608401610189565b610ec9816110a4565b50565b610ed4610fc1565b6001600160a01b038116610f1c5760405162461bcd60e51b815260206004820152600f60248201526e4e4f205a45524f204144445245535360881b6044820152606401610189565b600980546001600160a01b0319166001600160a01b0392909216919091179055565b60006301ffc9a760e01b6001600160e01b031983161480610f6f57506380ac58cd60e01b6001600160e01b03198316145b806105475750506001600160e01b031916635b5e139f60e01b1490565b600081600111158015610fa0575060005482105b8015610547575050600090815260046020526040902054600160e01b161590565b6008546001600160a01b03163314610a015760405162461bcd60e51b815260206004820181905260248201527f4f776e61626c653a2063616c6c6572206973206e6f7420746865206f776e65726044820152606401610189565b61070d828260405180602001604052806000815250611252565b6000818060011161108b5760005481101561108b5760008181526004602052604081205490600160e01b82169003611089575b80600003610c9c575060001901600081815260046020526040902054611068565b505b604051636f96cda160e11b815260040160405180910390fd5b600880546001600160a01b038381166001600160a01b0319831681179093556040519116919082907f8be0079c531659141344cd1fd0a4f28419497f9722a3daafe3b4186f6b6457e090600090a35050565b604080516080810182526000808252602082018190529181018290526060810191909152600082815260046020526040902054610547906112bf565b604051630a85bd0160e11b81526000906001600160a01b0385169063150b7a02906111679033908990889088906004016119ea565b6020604051808303816000875af19250505080156111a2575060408051601f3d908101601f1916820190925261119f91810190611a27565b60015b611200573d8080156111d0576040519150601f19603f3d011682016040523d82523d6000602084013e6111d5565b606091505b5080516000036111f8576040516368d2bf6b60e11b815260040160405180910390fd5b805181602001fd5b6001600160e01b031916630a85bd0160e11b149050949350505050565b60408051608081018252600080825260208201819052918101829052606081019190915261054761124d83611035565b6112bf565b61125c8383611307565b6001600160a01b0383163b156108c4576000548281035b6112866000868380600101945086611132565b6112a3576040516368d2bf6b60e11b815260040160405180910390fd5b8181106112735781600054146112b857600080fd5b5050505050565b604080516080810182526001600160a01b038316815260a083901c67ffffffffffffffff166020820152600160e01b831615159181019190915260e89190911c606082015290565b600080549082900361132c5760405163b562e8dd60e01b815260040160405180910390fd5b6001600160a01b03831660008181526005602090815260408083208054680100000000000000018802019055848352600490915281206001851460e11b4260a01b178317905582840190839083907fddf252ad1be2c89b69c2b068fc378daa952ba7f163c4a11628f55a4df523b3ef8180a4600183015b8181146113db57808360007fddf252ad1be2c89b69c2b068fc378daa952ba7f163c4a11628f55a4df523b3ef600080a46001016113a3565b50816000036113fc57604051622e076360e81b815260040160405180910390fd5b60005550505050565b6001600160e01b031981168114610ec957600080fd5b60006020828403121561142d57600080fd5b8135610c9c81611405565b60005b8381101561145357818101518382015260200161143b565b83811115610d535750506000910152565b6000815180845261147c816020860160208601611438565b601f01601f19169290920160200192915050565b602081526000610c9c6020830184611464565b6000602082840312156114b557600080fd5b5035919050565b80356001600160a01b03811681146114d357600080fd5b919050565b600080604083850312156114eb57600080fd5b6114f4836114bc565b946020939093013593505050565b634e487b7160e01b600052604160045260246000fd5b604051601f8201601f1916810167ffffffffffffffff8111828210171561154157611541611502565b604052919050565b6000602080838503121561155c57600080fd5b823567ffffffffffffffff8082111561157457600080fd5b818501915085601f83011261158857600080fd5b81358181111561159a5761159a611502565b8060051b91506115ab848301611518565b81815291830184019184810190888411156115c557600080fd5b938501935b838510156115ea576115db856114bc565b825293850193908501906115ca565b98975050505050505050565b60008060006060848603121561160b57600080fd5b611614846114bc565b9250611622602085016114bc565b9150604084013590509250925092565b6000806020838503121561164557600080fd5b823567ffffffffffffffff8082111561165d57600080fd5b818501915085601f83011261167157600080fd5b81358181111561168057600080fd5b8660208260051b850101111561169557600080fd5b60209290920196919550909350505050565b80516001600160a01b0316825260208082015167ffffffffffffffff169083015260408082015115159083015260609081015162ffffff16910152565b6020808252825182820181905260009190848201906040850190845b81811015610b00576117138385516116a7565b9284019260809290920191600101611700565b60006020828403121561173857600080fd5b610c9c826114bc565b6020808252825182820181905260009190848201906040850190845b81811015610b005783518352928401929184019160010161175d565b60008060006060848603121561178e57600080fd5b611797846114bc565b95602085013595506040909401359392505050565b600080604083850312156117bf57600080fd5b6117c8836114bc565b9150602083013580151581146117dd57600080fd5b809150509250929050565b600067ffffffffffffffff82111561180257611802611502565b50601f01601f191660200190565b6000806000806080858703121561182657600080fd5b61182f856114bc565b935061183d602086016114bc565b925060408501359150606085013567ffffffffffffffff81111561186057600080fd5b8501601f8101871361187157600080fd5b803561188461187f826117e8565b611518565b81815288602083850101111561189957600080fd5b8160208401602083013760006020838301015280935050505092959194509250565b6080810161054782846116a7565b600080604083850312156118dc57600080fd5b6118e5836114bc565b91506118f3602084016114bc565b90509250929050565b600181811c9082168061191057607f821691505b60208210810361193057634e487b7160e01b600052602260045260246000fd5b50919050565b634e487b7160e01b600052603260045260246000fd5b60006001820161196c57634e487b7160e01b600052601160045260246000fd5b5060010190565b60006020828403121561198557600080fd5b815167ffffffffffffffff81111561199c57600080fd5b8201601f810184136119ad57600080fd5b80516119bb61187f826117e8565b8181528560208385010111156119d057600080fd5b6119e1826020830160208601611438565b95945050505050565b6001600160a01b0385811682528416602082015260408101839052608060608201819052600090611a1d90830184611464565b9695505050505050565b600060208284031215611a3957600080fd5b8151610c9c8161140556fea26469706673582212207999863e4939b47bcc82fe2ff65bf27334cc3a5c8c9f4cd06c251e0fb50cd8ab64736f6c634300080f0033",
  "linkReferences": {},
  "deployedLinkReferences": {}
}