{
  "_format": "hh-sol-artifact-1",
  "contractName": "DoAW",
  "sourceName": "contracts/DoAW.sol",
  "abi": [
    {
      "inputs": [
        {
          "internalType": "address",
          "name": "metadata_",
          "type": "address"
        },
        {
          "internalType": "address",
          "name": "splitter_",
          "type": "address"
        }
      ],
      "stateMutability": "nonpayable",
      "type": "constructor"
    },
    {
      "anonymous": false,
      "inputs": [
        {
          "indexed": true,
          "internalType": "address",
          "name": "owner",
          "type": "address"
        },
        {
          "indexed": true,
          "internalType": "address",
          "name": "approved",
          "type": "address"
        },
        {
          "indexed": true,
          "internalType": "uint256",
          "name": "tokenId",
          "type": "uint256"
        }
      ],
      "name": "Approval",
      "type": "event"
    },
    {
      "anonymous": false,
      "inputs": [
        {
          "indexed": true,
          "internalType": "address",
          "name": "owner",
          "type": "address"
        },
        {
          "indexed": true,
          "internalType": "address",
          "name": "operator",
          "type": "address"
        },
        {
          "indexed": false,
          "internalType": "bool",
          "name": "approved",
          "type": "bool"
        }
      ],
      "name": "ApprovalForAll",
      "type": "event"
    },
    {
      "anonymous": false,
      "inputs": [
        {
          "indexed": true,
          "internalType": "address",
          "name": "to",
          "type": "address"
        },
        {
          "indexed": true,
          "internalType": "bool",
          "name": "success",
          "type": "bool"
        },
        {
          "indexed": false,
          "internalType": "bytes",
          "name": "returnData",
          "type": "bytes"
        },
        {
          "indexed": false,
          "internalType": "uint256",
          "name": "amount",
          "type": "uint256"
        }
      ],
      "name": "EthMoved",
      "type": "event"
    },
    {
      "anonymous": false,
      "inputs": [
        {
          "indexed": true,
          "internalType": "address",
          "name": "previousOwner",
          "type": "address"
        },
        {
          "indexed": true,
          "internalType": "address",
          "name": "newOwner",
          "type": "address"
        }
      ],
      "name": "OwnershipTransferred",
      "type": "event"
    },
    {
      "anonymous": false,
      "inputs": [
        {
          "indexed": true,
          "internalType": "address",
          "name": "from",
          "type": "address"
        },
        {
          "indexed": true,
          "internalType": "address",
          "name": "to",
          "type": "address"
        },
        {
          "indexed": true,
          "internalType": "uint256",
          "name": "tokenId",
          "type": "uint256"
        }
      ],
      "name": "Transfer",
      "type": "event"
    },
    {
      "stateMutability": "payable",
      "type": "fallback"
    },
    {
      "inputs": [],
      "name": "MAX_SUPPLY",
      "outputs": [
        {
          "internalType": "uint256",
          "name": "",
          "type": "uint256"
        }
      ],
      "stateMutability": "view",
      "type": "function"
    },
    {
      "inputs": [
        {
          "internalType": "address",
          "name": "recipient",
          "type": "address"
        },
        {
          "internalType": "uint256",
          "name": "quantity",
          "type": "uint256"
        },
        {
          "internalType": "uint256[]",
          "name": "entropy",
          "type": "uint256[]"
        }
      ],
      "name": "adminMint",
      "outputs": [],
      "stateMutability": "payable",
      "type": "function"
    },
    {
      "inputs": [
        {
          "internalType": "address",
          "name": "recipient",
          "type": "address"
        },
        {
          "internalType": "uint256",
          "name": "quantity",
          "type": "uint256"
        }
      ],
      "name": "adminMint",
      "outputs": [],
      "stateMutability": "payable",
      "type": "function"
    },
    {
      "inputs": [
        {
          "internalType": "address",
          "name": "_wallet",
          "type": "address"
        },
        {
          "internalType": "bytes32[]",
          "name": "_proof",
          "type": "bytes32[]"
        }
      ],
      "name": "allowListed",
      "outputs": [
        {
          "internalType": "bool",
          "name": "",
          "type": "bool"
        }
      ],
      "stateMutability": "view",
      "type": "function"
    },
    {
      "inputs": [
        {
          "internalType": "address",
          "name": "to",
          "type": "address"
        },
        {
          "internalType": "uint256",
          "name": "tokenId",
          "type": "uint256"
        }
      ],
      "name": "approve",
      "outputs": [],
      "stateMutability": "nonpayable",
      "type": "function"
    },
    {
      "inputs": [
        {
          "internalType": "address",
          "name": "owner",
          "type": "address"
        }
      ],
      "name": "balanceOf",
      "outputs": [
        {
          "internalType": "uint256",
          "name": "",
          "type": "uint256"
        }
      ],
      "stateMutability": "view",
      "type": "function"
    },
    {
      "inputs": [
        {
          "internalType": "uint256",
          "name": "tokenId",
          "type": "uint256"
        }
      ],
      "name": "getApproved",
      "outputs": [
        {
          "internalType": "address",
          "name": "",
          "type": "address"
        }
      ],
      "stateMutability": "view",
      "type": "function"
    },
    {
      "inputs": [
        {
          "internalType": "address",
          "name": "owner",
          "type": "address"
        },
        {
          "internalType": "address",
          "name": "operator",
          "type": "address"
        }
      ],
      "name": "isApprovedForAll",
      "outputs": [
        {
          "internalType": "bool",
          "name": "",
          "type": "bool"
        }
      ],
      "stateMutability": "view",
      "type": "function"
    },
    {
      "inputs": [
        {
          "internalType": "uint256",
          "name": "quantity",
          "type": "uint256"
        }
      ],
      "name": "makeEntropy",
      "outputs": [
        {
          "internalType": "uint256[]",
          "name": "entropy",
          "type": "uint256[]"
        }
      ],
      "stateMutability": "view",
      "type": "function"
    },
    {
      "inputs": [],
      "name": "merkleRoot",
      "outputs": [
        {
          "internalType": "bytes32",
          "name": "",
          "type": "bytes32"
        }
      ],
      "stateMutability": "view",
      "type": "function"
    },
    {
      "inputs": [],
      "name": "metadata",
      "outputs": [
        {
          "internalType": "address",
          "name": "",
          "type": "address"
        }
      ],
      "stateMutability": "view",
      "type": "function"
    },
    {
      "inputs": [],
      "name": "mint",
      "outputs": [],
      "stateMutability": "payable",
      "type": "function"
    },
    {
      "inputs": [
        {
          "internalType": "address",
          "name": "recipient",
          "type": "address"
        },
        {
          "internalType": "uint256",
          "name": "quantity",
          "type": "uint256"
        }
      ],
      "name": "mint",
      "outputs": [],
      "stateMutability": "payable",
      "type": "function"
    },
    {
      "inputs": [
        {
          "internalType": "address",
          "name": "recipient",
          "type": "address"
        }
      ],
      "name": "mint",
      "outputs": [],
      "stateMutability": "payable",
      "type": "function"
    },
    {
      "inputs": [
        {
          "internalType": "uint256",
          "name": "quantity",
          "type": "uint256"
        }
      ],
      "name": "mint",
      "outputs": [],
      "stateMutability": "payable",
      "type": "function"
    },
    {
      "inputs": [
        {
          "internalType": "address",
          "name": "recipient",
          "type": "address"
        },
        {
          "internalType": "uint256",
          "name": "quantity",
          "type": "uint256"
        },
        {
          "internalType": "uint256[]",
          "name": "entropy",
          "type": "uint256[]"
        }
      ],
      "name": "mint",
      "outputs": [],
      "stateMutability": "payable",
      "type": "function"
    },
    {
      "inputs": [
        {
          "internalType": "uint256",
          "name": "quantity",
          "type": "uint256"
        },
        {
          "internalType": "bytes32[]",
          "name": "_proof",
          "type": "bytes32[]"
        }
      ],
      "name": "mintAllowList",
      "outputs": [],
      "stateMutability": "payable",
      "type": "function"
    },
    {
      "inputs": [
        {
          "internalType": "address",
          "name": "recipient",
          "type": "address"
        },
        {
          "internalType": "uint256",
          "name": "entropy",
          "type": "uint256"
        }
      ],
      "name": "mintWithEntropy",
      "outputs": [],
      "stateMutability": "payable",
      "type": "function"
    },
    {
      "inputs": [],
      "name": "name",
      "outputs": [
        {
          "internalType": "string",
          "name": "",
          "type": "string"
        }
      ],
      "stateMutability": "view",
      "type": "function"
    },
    {
      "inputs": [],
      "name": "owner",
      "outputs": [
        {
          "internalType": "address",
          "name": "",
          "type": "address"
        }
      ],
      "stateMutability": "view",
      "type": "function"
    },
    {
      "inputs": [
        {
          "internalType": "uint256",
          "name": "tokenId",
          "type": "uint256"
        }
      ],
      "name": "ownerOf",
      "outputs": [
        {
          "internalType": "address",
          "name": "",
          "type": "address"
        }
      ],
      "stateMutability": "view",
      "type": "function"
    },
    {
      "inputs": [],
      "name": "paused",
      "outputs": [
        {
          "internalType": "bool",
          "name": "",
          "type": "bool"
        }
      ],
      "stateMutability": "view",
      "type": "function"
    },
    {
      "inputs": [],
      "name": "premint",
      "outputs": [
        {
          "internalType": "uint256",
          "name": "",
          "type": "uint256"
        }
      ],
      "stateMutability": "view",
      "type": "function"
    },
    {
      "inputs": [],
      "name": "price",
      "outputs": [
        {
          "internalType": "uint256",
          "name": "",
          "type": "uint256"
        }
      ],
      "stateMutability": "view",
      "type": "function"
    },
    {
      "inputs": [
        {
          "internalType": "address payable",
          "name": "_to",
          "type": "address"
        }
      ],
      "name": "recoverUnsuccessfulMintPayment",
      "outputs": [],
      "stateMutability": "nonpayable",
      "type": "function"
    },
    {
      "inputs": [],
      "name": "renounceOwnership",
      "outputs": [],
      "stateMutability": "nonpayable",
      "type": "function"
    },
    {
      "inputs": [
        {
          "internalType": "uint256",
          "name": "tokenId",
          "type": "uint256"
        },
        {
          "internalType": "uint256",
          "name": "salePrice",
          "type": "uint256"
        }
      ],
      "name": "royaltyInfo",
      "outputs": [
        {
          "internalType": "address",
          "name": "",
          "type": "address"
        },
        {
          "internalType": "uint256",
          "name": "",
          "type": "uint256"
        }
      ],
      "stateMutability": "view",
      "type": "function"
    },
    {
      "inputs": [
        {
          "internalType": "address",
          "name": "from",
          "type": "address"
        },
        {
          "internalType": "address",
          "name": "to",
          "type": "address"
        },
        {
          "internalType": "uint256",
          "name": "tokenId",
          "type": "uint256"
        }
      ],
      "name": "safeTransferFrom",
      "outputs": [],
      "stateMutability": "nonpayable",
      "type": "function"
    },
    {
      "inputs": [
        {
          "internalType": "address",
          "name": "from",
          "type": "address"
        },
        {
          "internalType": "address",
          "name": "to",
          "type": "address"
        },
        {
          "internalType": "uint256",
          "name": "tokenId",
          "type": "uint256"
        },
        {
          "internalType": "bytes",
          "name": "data",
          "type": "bytes"
        }
      ],
      "name": "safeTransferFrom",
      "outputs": [],
      "stateMutability": "nonpayable",
      "type": "function"
    },
    {
      "inputs": [
        {
          "internalType": "address",
          "name": "operator",
          "type": "address"
        },
        {
          "internalType": "bool",
          "name": "approved",
          "type": "bool"
        }
      ],
      "name": "setApprovalForAll",
      "outputs": [],
      "stateMutability": "nonpayable",
      "type": "function"
    },
    {
      "inputs": [
        {
          "internalType": "bytes32",
          "name": "merkleRoot_",
          "type": "bytes32"
        }
      ],
      "name": "setMerkleRoot",
      "outputs": [],
      "stateMutability": "nonpayable",
      "type": "function"
    },
    {
      "inputs": [
        {
          "internalType": "address",
          "name": "metadata_",
          "type": "address"
        }
      ],
      "name": "setMetadata",
      "outputs": [],
      "stateMutability": "nonpayable",
      "type": "function"
    },
    {
      "inputs": [
        {
          "internalType": "bool",
          "name": "paused_",
          "type": "bool"
        }
      ],
      "name": "setPause",
      "outputs": [],
      "stateMutability": "nonpayable",
      "type": "function"
    },
    {
      "inputs": [
        {
          "internalType": "uint256",
          "name": "premint_",
          "type": "uint256"
        }
      ],
      "name": "setPremint",
      "outputs": [],
      "stateMutability": "nonpayable",
      "type": "function"
    },
    {
      "inputs": [
        {
          "internalType": "uint256",
          "name": "price_",
          "type": "uint256"
        }
      ],
      "name": "setPrice",
      "outputs": [],
      "stateMutability": "nonpayable",
      "type": "function"
    },
    {
      "inputs": [
        {
          "internalType": "address",
          "name": "royaltyReceiver",
          "type": "address"
        },
        {
          "internalType": "uint96",
          "name": "royaltyPercentage",
          "type": "uint96"
        }
      ],
      "name": "setRoyaltyPercentage",
      "outputs": [],
      "stateMutability": "nonpayable",
      "type": "function"
    },
    {
      "inputs": [
        {
          "internalType": "address",
          "name": "splitter_",
          "type": "address"
        }
      ],
      "name": "setSplitter",
      "outputs": [],
      "stateMutability": "nonpayable",
      "type": "function"
    },
    {
      "inputs": [
        {
          "internalType": "uint256",
          "name": "startdate_",
          "type": "uint256"
        }
      ],
      "name": "setStartdate",
      "outputs": [],
      "stateMutability": "nonpayable",
      "type": "function"
    },
    {
      "inputs": [],
      "name": "splitter",
      "outputs": [
        {
          "internalType": "address",
          "name": "",
          "type": "address"
        }
      ],
      "stateMutability": "view",
      "type": "function"
    },
    {
      "inputs": [],
      "name": "startdate",
      "outputs": [
        {
          "internalType": "uint256",
          "name": "",
          "type": "uint256"
        }
      ],
      "stateMutability": "view",
      "type": "function"
    },
    {
      "inputs": [
        {
          "internalType": "bytes4",
          "name": "interfaceId",
          "type": "bytes4"
        }
      ],
      "name": "supportsInterface",
      "outputs": [
        {
          "internalType": "bool",
          "name": "",
          "type": "bool"
        }
      ],
      "stateMutability": "view",
      "type": "function"
    },
    {
      "inputs": [],
      "name": "symbol",
      "outputs": [
        {
          "internalType": "string",
          "name": "",
          "type": "string"
        }
      ],
      "stateMutability": "view",
      "type": "function"
    },
    {
      "inputs": [
        {
          "internalType": "uint256",
          "name": "index",
          "type": "uint256"
        }
      ],
      "name": "tokenByIndex",
      "outputs": [
        {
          "internalType": "uint256",
          "name": "",
          "type": "uint256"
        }
      ],
      "stateMutability": "view",
      "type": "function"
    },
    {
      "inputs": [
        {
          "internalType": "address",
          "name": "owner",
          "type": "address"
        },
        {
          "internalType": "uint256",
          "name": "index",
          "type": "uint256"
        }
      ],
      "name": "tokenOfOwnerByIndex",
      "outputs": [
        {
          "internalType": "uint256",
          "name": "",
          "type": "uint256"
        }
      ],
      "stateMutability": "view",
      "type": "function"
    },
    {
      "inputs": [
        {
          "internalType": "uint256",
          "name": "id",
          "type": "uint256"
        }
      ],
      "name": "tokenURI",
      "outputs": [
        {
          "internalType": "string",
          "name": "",
          "type": "string"
        }
      ],
      "stateMutability": "view",
      "type": "function"
    },
    {
      "inputs": [],
      "name": "totalSupply",
      "outputs": [
        {
          "internalType": "uint256",
          "name": "",
          "type": "uint256"
        }
      ],
      "stateMutability": "view",
      "type": "function"
    },
    {
      "inputs": [
        {
          "internalType": "address",
          "name": "from",
          "type": "address"
        },
        {
          "internalType": "address",
          "name": "to",
          "type": "address"
        },
        {
          "internalType": "uint256",
          "name": "tokenId",
          "type": "uint256"
        }
      ],
      "name": "transferFrom",
      "outputs": [],
      "stateMutability": "nonpayable",
      "type": "function"
    },
    {
      "inputs": [
        {
          "internalType": "address",
          "name": "newOwner",
          "type": "address"
        }
      ],
      "name": "transferOwnership",
      "outputs": [],
      "stateMutability": "nonpayable",
      "type": "function"
    },
    {
      "stateMutability": "payable",
      "type": "receive"
    }
  ],
  "bytecode": "0x6080604052600e805460ff1916905566038d7ea4c68000600f55636553b5a06012556365538b706013557ff78f6412ef155d654600b79b83071b194c4c94f1212bb3feea35d4a290c3d0c96014553480156200005a57600080fd5b506040516200317c3803806200317c8339810160408190526200007d91620002a6565b604080518082018252600480825263446f415760e01b6020808401829052845180860190955291845290830152906000620000b9838262000383565b506001620000c8828262000383565b505050620000e5620000df6200012e60201b60201c565b62000132565b6001600d55601080546001600160a01b038085166001600160a01b031992831617909255601180549284169290911682179055620001269061035262000184565b50506200044f565b3390565b600a80546001600160a01b038381166001600160a01b0319831681179093556040519116919082907f8be0079c531659141344cd1fd0a4f28419497f9722a3daafe3b4186f6b6457e090600090a35050565b6127106001600160601b0382161115620001f85760405162461bcd60e51b815260206004820152602a60248201527f455243323938313a20726f79616c7479206665652077696c6c206578636565646044820152692073616c65507269636560b01b60648201526084015b60405180910390fd5b6001600160a01b038216620002505760405162461bcd60e51b815260206004820152601960248201527f455243323938313a20696e76616c6964207265636569766572000000000000006044820152606401620001ef565b604080518082019091526001600160a01b039092168083526001600160601b039091166020909201829052600160a01b90910217600b55565b80516001600160a01b0381168114620002a157600080fd5b919050565b60008060408385031215620002ba57600080fd5b620002c58362000289565b9150620002d56020840162000289565b90509250929050565b634e487b7160e01b600052604160045260246000fd5b600181811c908216806200030957607f821691505b6020821081036200032a57634e487b7160e01b600052602260045260246000fd5b50919050565b601f8211156200037e57600081815260208120601f850160051c81016020861015620003595750805b601f850160051c820191505b818110156200037a5782815560010162000365565b5050505b505050565b81516001600160401b038111156200039f576200039f620002de565b620003b781620003b08454620002f4565b8462000330565b602080601f831160018114620003ef5760008415620003d65750858301515b600019600386901b1c1916600185901b1785556200037a565b600085815260208120601f198616915b828110156200042057888601518255948401946001909101908401620003ff565b50858210156200043f5787850151600019600388901b60f8161c191681555b5050505050600190811b01905550565b612d1d806200045f6000396000f3fe6080604052600436106102975760003560e01c80637cb647591161015a578063c09fd8ef116100c1578063e985e9c51161007a578063e985e9c51461077c578063f2fde38b146107c5578063f3cb8385146107e5578063f5d5327b14610805578063fa05a65714610832578063fe23245a14610845576102a6565b8063c09fd8ef146106d3578063c87b56dd146106f3578063c93fc83d14610713578063cde9f2ea14610733578063d410f56914610749578063e58306f914610769576102a6565b806395d89b411161011357806395d89b4114610635578063a035b1fe1461064a578063a0712d6814610660578063a22cb46514610673578063b88d4fde14610693578063bedb86fb146106b3576102a6565b80637cb6475914610591578063818779ef146105b1578063881a37c6146105d15780638da5cb5b146105e457806391b7f5ed14610602578063958220e314610622576102a6565b8063392f37e9116101fe5780635c975abb116101b75780635c975abb146104ef5780636352211e146105095780636a6278421461052957806370a082311461053c578063715018a61461055c57806375fb322514610571576102a6565b8063392f37e9146104465780633cd8045e1461046657806340c10f191461048657806342842e0e1461049957806348a1e66b146104b95780634f6ccce7146104cf576102a6565b806323b872dd1161025057806323b872dd1461037c578063247155ff1461039c5780632a55205a146103bc5780632eb4a7ab146103fb5780632f745c591461041157806332cb6b0c14610431576102a6565b806301ffc9a7146102ae57806306fdde03146102e3578063081812fc14610305578063095ea7b31461033d5780631249c58b146102a657806318160ddd1461035d576102a6565b366102a6576102a4610858565b005b6102a4610858565b3480156102ba57600080fd5b506102ce6102c93660046124c4565b610865565b60405190151581526020015b60405180910390f35b3480156102ef57600080fd5b506102f86108c6565b6040516102da9190612539565b34801561031157600080fd5b5061032561032036600461254c565b610958565b6040516001600160a01b0390911681526020016102da565b34801561034957600080fd5b506102a461035836600461257a565b61097f565b34801561036957600080fd5b506008545b6040519081526020016102da565b34801561038857600080fd5b506102a46103973660046125a6565b610a99565b3480156103a857600080fd5b506102ce6103b736600461262c565b610aca565b3480156103c857600080fd5b506103dc6103d7366004612681565b610b4a565b604080516001600160a01b0390931683526020830191909152016102da565b34801561040757600080fd5b5061036e60145481565b34801561041d57600080fd5b5061036e61042c36600461257a565b610bf8565b34801561043d57600080fd5b5061036e606381565b34801561045257600080fd5b50601054610325906001600160a01b031681565b34801561047257600080fd5b50601154610325906001600160a01b031681565b6102a461049436600461257a565b610c8e565b3480156104a557600080fd5b506102a46104b43660046125a6565b610cef565b3480156104c557600080fd5b5061036e60135481565b3480156104db57600080fd5b5061036e6104ea36600461254c565b610d0a565b3480156104fb57600080fd5b50600e546102ce9060ff1681565b34801561051557600080fd5b5061032561052436600461254c565b610d9d565b6102a46105373660046126a3565b610dfd565b34801561054857600080fd5b5061036e6105573660046126a3565b610e0b565b34801561056857600080fd5b506102a4610e91565b34801561057d57600080fd5b506102a461058c36600461254c565b610ea3565b34801561059d57600080fd5b506102a46105ac36600461254c565b610eb0565b3480156105bd57600080fd5b506102a46105cc3660046126c0565b610ebd565b6102a46105df36600461274c565b610ecf565b3480156105f057600080fd5b50600a546001600160a01b0316610325565b34801561060e57600080fd5b506102a461061d36600461254c565b610fb7565b6102a461063036600461257a565b610fc4565b34801561064157600080fd5b506102f8611012565b34801561065657600080fd5b5061036e600f5481565b6102a461066e36600461254c565b611021565b34801561067f57600080fd5b506102a461068e366004612825565b61102b565b34801561069f57600080fd5b506102a46106ae366004612882565b611036565b3480156106bf57600080fd5b506102a46106ce366004612931565b61106e565b3480156106df57600080fd5b506102a46106ee3660046126a3565b611089565b3480156106ff57600080fd5b506102f861070e36600461254c565b611124565b34801561071f57600080fd5b506102a461072e3660046126a3565b611196565b34801561073f57600080fd5b5061036e60125481565b34801561075557600080fd5b506102a461076436600461254c565b611208565b6102a461077736600461257a565b611215565b34801561078857600080fd5b506102ce61079736600461294c565b6001600160a01b03918216600090815260056020908152604080832093909416825291909152205460ff1690565b3480156107d157600080fd5b506102a46107e03660046126a3565b61122b565b3480156107f157600080fd5b506102a46108003660046126a3565b6112a1565b34801561081157600080fd5b5061082561082036600461254c565b611313565b6040516102da919061297a565b6102a46108403660046129be565b6113f2565b6102a461085336600461274c565b6114ae565b610863336001610c8e565b565b60006001600160e01b031982166380ac58cd60e01b148061089657506001600160e01b03198216635b5e139f60e01b145b806108b157506001600160e01b0319821663152a902d60e11b145b806108c057506108c082611503565b92915050565b6060600080546108d5906129f1565b80601f0160208091040260200160405190810160405280929190818152602001828054610901906129f1565b801561094e5780601f106109235761010080835404028352916020019161094e565b820191906000526020600020905b81548152906001019060200180831161093157829003601f168201915b5050505050905090565b600061096382611528565b506000908152600460205260409020546001600160a01b031690565b600061098a82610d9d565b9050806001600160a01b0316836001600160a01b0316036109fc5760405162461bcd60e51b815260206004820152602160248201527f4552433732313a20617070726f76616c20746f2063757272656e74206f776e656044820152603960f91b60648201526084015b60405180910390fd5b336001600160a01b0382161480610a185750610a188133610797565b610a8a5760405162461bcd60e51b815260206004820152603d60248201527f4552433732313a20617070726f76652063616c6c6572206973206e6f7420746f60448201527f6b656e206f776e6572206f7220617070726f76656420666f7220616c6c00000060648201526084016109f3565b610a948383611587565b505050565b610aa333826115f5565b610abf5760405162461bcd60e51b81526004016109f390612a25565b610a94838383611673565b6000610b42838380806020026020016040519081016040528093929190818152602001838360200280828437600092019190915250506014546040516bffffffffffffffffffffffff1960608b901b1660208201529092506034019050604051602081830303815290604052805190602001206117e4565b949350505050565b6000828152600c602090815260408083208151808301909252546001600160a01b038116808352600160a01b9091046001600160601b0316928201929092528291610bbf575060408051808201909152600b546001600160a01b0381168252600160a01b90046001600160601b031660208201525b602081015160009061271090610bde906001600160601b031687612a88565b610be89190612aa7565b91519350909150505b9250929050565b6000610c0383610e0b565b8210610c655760405162461bcd60e51b815260206004820152602b60248201527f455243373231456e756d657261626c653a206f776e657220696e646578206f7560448201526a74206f6620626f756e647360a81b60648201526084016109f3565b506001600160a01b03919091166000908152600660209081526040808320938352929052205490565b600e5460ff16158015610ca357506012544210155b610cd85760405162461bcd60e51b815260206004820152600660248201526514105554d15160d21b60448201526064016109f3565b610ceb8282610ce684611313565b6117fa565b5050565b610a9483838360405180602001604052806000815250611036565b6000610d1560085490565b8210610d785760405162461bcd60e51b815260206004820152602c60248201527f455243373231456e756d657261626c653a20676c6f62616c20696e646578206f60448201526b7574206f6620626f756e647360a01b60648201526084016109f3565b60088281548110610d8b57610d8b612ac9565b90600052602060002001549050919050565b6000818152600260205260408120546001600160a01b0316806108c05760405162461bcd60e51b8152602060048201526018602482015277115490cdcc8c4e881a5b9d985b1a59081d1bdad95b88125160421b60448201526064016109f3565b610e08816001610c8e565b50565b60006001600160a01b038216610e755760405162461bcd60e51b815260206004820152602960248201527f4552433732313a2061646472657373207a65726f206973206e6f7420612076616044820152683634b21037bbb732b960b91b60648201526084016109f3565b506001600160a01b031660009081526003602052604090205490565b610e99611b0c565b6108636000611b66565b610eab611b0c565b601355565b610eb8611b0c565b601455565b610ec5611b0c565b610ceb8282611bb8565b610ed7611b0c565b60115460405160009182916001600160a01b039091169034908381818185875af1925050503d8060008114610f28576040519150601f19603f3d011682016040523d82523d6000602084013e610f2d565b606091505b50601154604051929450909250831515916001600160a01b0390911690600080516020612cc883398151915290610f679085903490612adf565b60405180910390a360005b84811015610faf57610f9d86858381518110610f9057610f90612ac9565b6020026020010151611cb5565b80610fa781612b01565b915050610f72565b505050505050565b610fbf611b0c565b600f55565b604080516001808252818301909252600091602080830190803683370190505090508181600081518110610ffa57610ffa612ac9565b602002602001018181525050610a94836001836114ae565b6060600180546108d5906129f1565b610e083382610c8e565b610ceb338383611ccf565b61104033836115f5565b61105c5760405162461bcd60e51b81526004016109f390612a25565b61106884848484611d9d565b50505050565b611076611b0c565b600e805460ff1916911515919091179055565b611091611b0c565b604051479060009081906001600160a01b0385169084908381818185875af1925050503d80600081146110e0576040519150601f19603f3d011682016040523d82523d6000602084013e6110e5565b606091505b5091509150811515846001600160a01b0316600080516020612cc88339815191528386604051611116929190612adf565b60405180910390a350505050565b60105460405163295d33a960e21b8152600481018390526060916001600160a01b03169063a574cea490602401600060405180830381865afa15801561116e573d6000803e3d6000fd5b505050506040513d6000823e601f3d908101601f191682016040526108c09190810190612b1a565b61119e611b0c565b6001600160a01b0381166111e65760405162461bcd60e51b815260206004820152600f60248201526e4e4f205a45524f204144445245535360881b60448201526064016109f3565b601180546001600160a01b0319166001600160a01b0392909216919091179055565b611210611b0c565b601255565b61121d611b0c565b610ceb82826105df84611313565b611233611b0c565b6001600160a01b0381166112985760405162461bcd60e51b815260206004820152602660248201527f4f776e61626c653a206e6577206f776e657220697320746865207a65726f206160448201526564647265737360d01b60648201526084016109f3565b610e0881611b66565b6112a9611b0c565b6001600160a01b0381166112f15760405162461bcd60e51b815260206004820152600f60248201526e4e4f205a45524f204144445245535360881b60448201526064016109f3565b601080546001600160a01b0319166001600160a01b0392909216919091179055565b60608167ffffffffffffffff81111561132e5761132e612705565b604051908082528060200260200182016040528015611357578160200160208202803683370190505b50905060005b828110156113ec57424433836040516020016113a49493929190938452602084019290925260601b6bffffffffffffffffffffffff19166040830152605482015260740190565b6040516020818303038152906040528051906020012060001c8282815181106113cf576113cf612ac9565b6020908102919091010152806113e481612b01565b91505061135d565b50919050565b6113fd338383610aca565b6114495760405162461bcd60e51b815260206004820152601c60248201527f596f7520617265206e6f74206f6e2074686520616c6c6f776c6973740000000060448201526064016109f3565b600e5460ff1615801561145e57506013544210155b6114a05760405162461bcd60e51b8152602060048201526013602482015272141c995b5a5b9d081b9bdd081cdd185c9d1959606a1b60448201526064016109f3565b610a943384610ce686611313565b600e5460ff161580156114c357506012544210155b6114f85760405162461bcd60e51b815260206004820152600660248201526514105554d15160d21b60448201526064016109f3565b610a948383836117fa565b60006001600160e01b0319821663152a902d60e11b14806108c057506108c082611dd0565b6000818152600260205260409020546001600160a01b0316610e085760405162461bcd60e51b8152602060048201526018602482015277115490cdcc8c4e881a5b9d985b1a59081d1bdad95b88125160421b60448201526064016109f3565b600081815260046020526040902080546001600160a01b0319166001600160a01b03841690811790915581906115bc82610d9d565b6001600160a01b03167f8c5be1e5ebec7d5bd14f71427d1e84f3dd0314c0f7b2291e5b200ac8c7c3b92560405160405180910390a45050565b60008061160183610d9d565b9050806001600160a01b0316846001600160a01b0316148061164857506001600160a01b0380821660009081526005602090815260408083209388168352929052205460ff165b80610b425750836001600160a01b031661166184610958565b6001600160a01b031614949350505050565b826001600160a01b031661168682610d9d565b6001600160a01b0316146116ac5760405162461bcd60e51b81526004016109f390612b91565b6001600160a01b03821661170e5760405162461bcd60e51b8152602060048201526024808201527f4552433732313a207472616e7366657220746f20746865207a65726f206164646044820152637265737360e01b60648201526084016109f3565b61171b8383836001611df5565b826001600160a01b031661172e82610d9d565b6001600160a01b0316146117545760405162461bcd60e51b81526004016109f390612b91565b600081815260046020908152604080832080546001600160a01b03199081169091556001600160a01b0387811680865260038552838620805460001901905590871680865283862080546001019055868652600290945282852080549092168417909155905184937fddf252ad1be2c89b69c2b068fc378daa952ba7f163c4a11628f55a4df523b3ef91a4505050565b6000826117f18584611f29565b14949350505050565b611802611f76565b81600f546118109190612a88565b34101561184d5760405162461bcd60e51b815260206004820152600b60248201526a57524f4e4720505249434560a81b60448201526064016109f3565b818151146118ab5760405162461bcd60e51b815260206004820152602560248201527f454e54524f5059204c454e47544820444f45534e2754204d41544348205155416044820152644e5449545960d81b60648201526084016109f3565b81600114806118ba5750816003145b806118c55750816005145b6119225760405162461bcd60e51b815260206004820152602860248201527f43414e2754204d494e542042455349444553205155414e54495459204f4620316044820152672c2033204f52203560c01b60648201526084016109f3565b60638261192e60085490565b6119389190612bd6565b11156119935760085461194c906063612bee565b9150816000036119935760405162461bcd60e51b81526020600482015260126024820152711350560814d5541413164814915050d2115160721b60448201526064016109f3565b6000600f54836119a39190612a88565b60115460405191925060009182916001600160a01b03169084908381818185875af1925050503d80600081146119f5576040519150601f19603f3d011682016040523d82523d6000602084013e6119fa565b606091505b50601154604051929450909250831515916001600160a01b0390911690600080516020612cc883398151915290611a349085908890612adf565b60405180910390a360005b85811015611a6f57611a5d87868381518110610f9057610f90612ac9565b80611a6781612b01565b915050611a3f565b5034831015611aff5733611a838434612bee565b604051600081818185875af1925050503d8060008114611abf576040519150601f19603f3d011682016040523d82523d6000602084013e611ac4565b606091505b50909250905081151533600080516020612cc883398151915283611ae88734612bee565b604051611af6929190612adf565b60405180910390a35b505050610a946001600d55565b600a546001600160a01b031633146108635760405162461bcd60e51b815260206004820181905260248201527f4f776e61626c653a2063616c6c6572206973206e6f7420746865206f776e657260448201526064016109f3565b600a80546001600160a01b038381166001600160a01b0319831681179093556040519116919082907f8be0079c531659141344cd1fd0a4f28419497f9722a3daafe3b4186f6b6457e090600090a35050565b6127106001600160601b0382161115611c265760405162461bcd60e51b815260206004820152602a60248201527f455243323938313a20726f79616c7479206665652077696c6c206578636565646044820152692073616c65507269636560b01b60648201526084016109f3565b6001600160a01b038216611c7c5760405162461bcd60e51b815260206004820152601960248201527f455243323938313a20696e76616c69642072656365697665720000000000000060448201526064016109f3565b604080518082019091526001600160a01b039092168083526001600160601b039091166020909201829052600160a01b90910217600b55565b610ceb828260405180602001604052806000815250611fcf565b816001600160a01b0316836001600160a01b031603611d305760405162461bcd60e51b815260206004820152601960248201527f4552433732313a20617070726f766520746f2063616c6c65720000000000000060448201526064016109f3565b6001600160a01b03838116600081815260056020908152604080832094871680845294825291829020805460ff191686151590811790915591519182527f17307eab39ab6107e8899845ad3d59bd9653f200f220920489ca2b5937696c31910160405180910390a3505050565b611da8848484611673565b611db484848484612002565b6110685760405162461bcd60e51b81526004016109f390612c05565b60006001600160e01b0319821663780e9d6360e01b14806108c057506108c082612103565b6001811115611e645760405162461bcd60e51b815260206004820152603560248201527f455243373231456e756d657261626c653a20636f6e7365637574697665207472604482015274185b9cd9995c9cc81b9bdd081cdd5c1c1bdc9d1959605a1b60648201526084016109f3565b816001600160a01b038516611ec057611ebb81600880546000838152600960205260408120829055600182018355919091527ff3f7a9fe364faab93b216da50a3214154f22a0a2b415b23a84c8169e8b636ee30155565b611ee3565b836001600160a01b0316856001600160a01b031614611ee357611ee38582612153565b6001600160a01b038416611eff57611efa816121f0565b611f22565b846001600160a01b0316846001600160a01b031614611f2257611f22848261229f565b5050505050565b600081815b8451811015611f6e57611f5a82868381518110611f4d57611f4d612ac9565b60200260200101516122e3565b915080611f6681612b01565b915050611f2e565b509392505050565b6002600d5403611fc85760405162461bcd60e51b815260206004820152601f60248201527f5265656e7472616e637947756172643a207265656e7472616e742063616c6c0060448201526064016109f3565b6002600d55565b611fd98383612315565b611fe66000848484612002565b610a945760405162461bcd60e51b81526004016109f390612c05565b60006001600160a01b0384163b156120f857604051630a85bd0160e11b81526001600160a01b0385169063150b7a0290612046903390899088908890600401612c57565b6020604051808303816000875af1925050508015612081575060408051601f3d908101601f1916820190925261207e91810190612c94565b60015b6120de573d8080156120af576040519150601f19603f3d011682016040523d82523d6000602084013e6120b4565b606091505b5080516000036120d65760405162461bcd60e51b81526004016109f390612c05565b805181602001fd5b6001600160e01b031916630a85bd0160e11b149050610b42565b506001949350505050565b60006001600160e01b031982166380ac58cd60e01b148061213457506001600160e01b03198216635b5e139f60e01b145b806108c057506301ffc9a760e01b6001600160e01b03198316146108c0565b6000600161216084610e0b565b61216a9190612bee565b6000838152600760205260409020549091508082146121bd576001600160a01b03841660009081526006602090815260408083208584528252808320548484528184208190558352600790915290208190555b5060009182526007602090815260408084208490556001600160a01b039094168352600681528383209183525290812055565b60085460009061220290600190612bee565b6000838152600960205260408120546008805493945090928490811061222a5761222a612ac9565b90600052602060002001549050806008838154811061224b5761224b612ac9565b600091825260208083209091019290925582815260099091526040808220849055858252812055600880548061228357612283612cb1565b6001900381819060005260206000200160009055905550505050565b60006122aa83610e0b565b6001600160a01b039093166000908152600660209081526040808320868452825280832085905593825260079052919091209190915550565b60008183106122ff57600082815260208490526040902061230e565b60008381526020839052604090205b9392505050565b6001600160a01b03821661236b5760405162461bcd60e51b815260206004820181905260248201527f4552433732313a206d696e7420746f20746865207a65726f206164647265737360448201526064016109f3565b6000818152600260205260409020546001600160a01b0316156123d05760405162461bcd60e51b815260206004820152601c60248201527f4552433732313a20746f6b656e20616c7265616479206d696e7465640000000060448201526064016109f3565b6123de600083836001611df5565b6000818152600260205260409020546001600160a01b0316156124435760405162461bcd60e51b815260206004820152601c60248201527f4552433732313a20746f6b656e20616c7265616479206d696e7465640000000060448201526064016109f3565b6001600160a01b038216600081815260036020908152604080832080546001019055848352600290915280822080546001600160a01b0319168417905551839291907fddf252ad1be2c89b69c2b068fc378daa952ba7f163c4a11628f55a4df523b3ef908290a45050565b6001600160e01b031981168114610e0857600080fd5b6000602082840312156124d657600080fd5b813561230e816124ae565b60005b838110156124fc5781810151838201526020016124e4565b838111156110685750506000910152565b600081518084526125258160208601602086016124e1565b601f01601f19169290920160200192915050565b60208152600061230e602083018461250d565b60006020828403121561255e57600080fd5b5035919050565b6001600160a01b0381168114610e0857600080fd5b6000806040838503121561258d57600080fd5b823561259881612565565b946020939093013593505050565b6000806000606084860312156125bb57600080fd5b83356125c681612565565b925060208401356125d681612565565b929592945050506040919091013590565b60008083601f8401126125f957600080fd5b50813567ffffffffffffffff81111561261157600080fd5b6020830191508360208260051b8501011115610bf157600080fd5b60008060006040848603121561264157600080fd5b833561264c81612565565b9250602084013567ffffffffffffffff81111561266857600080fd5b612674868287016125e7565b9497909650939450505050565b6000806040838503121561269457600080fd5b50508035926020909101359150565b6000602082840312156126b557600080fd5b813561230e81612565565b600080604083850312156126d357600080fd5b82356126de81612565565b915060208301356001600160601b03811681146126fa57600080fd5b809150509250929050565b634e487b7160e01b600052604160045260246000fd5b604051601f8201601f1916810167ffffffffffffffff8111828210171561274457612744612705565b604052919050565b60008060006060848603121561276157600080fd5b833561276c81612565565b92506020848101359250604085013567ffffffffffffffff8082111561279157600080fd5b818701915087601f8301126127a557600080fd5b8135818111156127b7576127b7612705565b8060051b91506127c884830161271b565b818152918301840191848101908a8411156127e257600080fd5b938501935b83851015612800578435825293850193908501906127e7565b8096505050505050509250925092565b8035801515811461282057600080fd5b919050565b6000806040838503121561283857600080fd5b823561284381612565565b915061285160208401612810565b90509250929050565b600067ffffffffffffffff82111561287457612874612705565b50601f01601f191660200190565b6000806000806080858703121561289857600080fd5b84356128a381612565565b935060208501356128b381612565565b925060408501359150606085013567ffffffffffffffff8111156128d657600080fd5b8501601f810187136128e757600080fd5b80356128fa6128f58261285a565b61271b565b81815288602083850101111561290f57600080fd5b8160208401602083013760006020838301015280935050505092959194509250565b60006020828403121561294357600080fd5b61230e82612810565b6000806040838503121561295f57600080fd5b823561296a81612565565b915060208301356126fa81612565565b6020808252825182820181905260009190848201906040850190845b818110156129b257835183529284019291840191600101612996565b50909695505050505050565b6000806000604084860312156129d357600080fd5b83359250602084013567ffffffffffffffff81111561266857600080fd5b600181811c90821680612a0557607f821691505b6020821081036113ec57634e487b7160e01b600052602260045260246000fd5b6020808252602d908201527f4552433732313a2063616c6c6572206973206e6f7420746f6b656e206f776e6560408201526c1c881bdc88185c1c1c9bdd9959609a1b606082015260800190565b634e487b7160e01b600052601160045260246000fd5b6000816000190483118215151615612aa257612aa2612a72565b500290565b600082612ac457634e487b7160e01b600052601260045260246000fd5b500490565b634e487b7160e01b600052603260045260246000fd5b604081526000612af2604083018561250d565b90508260208301529392505050565b600060018201612b1357612b13612a72565b5060010190565b600060208284031215612b2c57600080fd5b815167ffffffffffffffff811115612b4357600080fd5b8201601f81018413612b5457600080fd5b8051612b626128f58261285a565b818152856020838501011115612b7757600080fd5b612b888260208301602086016124e1565b95945050505050565b60208082526025908201527f4552433732313a207472616e736665722066726f6d20696e636f72726563742060408201526437bbb732b960d91b606082015260800190565b60008219821115612be957612be9612a72565b500190565b600082821015612c0057612c00612a72565b500390565b60208082526032908201527f4552433732313a207472616e7366657220746f206e6f6e20455243373231526560408201527131b2b4bb32b91034b6b83632b6b2b73a32b960711b606082015260800190565b6001600160a01b0385811682528416602082015260408101839052608060608201819052600090612c8a9083018461250d565b9695505050505050565b600060208284031215612ca657600080fd5b815161230e816124ae565b634e487b7160e01b600052603160045260246000fdfeb08889abce443443404b2caf69aa3ccfb9ebfdf1ad2a634d06e11e24c1067938a264697066735822122024ad31f91cfe0cceaee645bb9dc4e414af166fffaed35642ae4093a050a93d9964736f6c634300080f0033",
  "linkReferences": {},
  "deployedLinkReferences": {}
}