{
  "_format": "hh-sol-artifact-1",
  "contractName": "DoAW",
  "sourceName": "contracts/DoAW.sol",
  "abi": [
    {
      "inputs": [
        {
          "internalType": "address",
          "name": "metadata_",
          "type": "address"
        },
        {
          "internalType": "address",
          "name": "splitter_",
          "type": "address"
        }
      ],
      "stateMutability": "nonpayable",
      "type": "constructor"
    },
    {
      "anonymous": false,
      "inputs": [
        {
          "indexed": true,
          "internalType": "address",
          "name": "owner",
          "type": "address"
        },
        {
          "indexed": true,
          "internalType": "address",
          "name": "approved",
          "type": "address"
        },
        {
          "indexed": true,
          "internalType": "uint256",
          "name": "tokenId",
          "type": "uint256"
        }
      ],
      "name": "Approval",
      "type": "event"
    },
    {
      "anonymous": false,
      "inputs": [
        {
          "indexed": true,
          "internalType": "address",
          "name": "owner",
          "type": "address"
        },
        {
          "indexed": true,
          "internalType": "address",
          "name": "operator",
          "type": "address"
        },
        {
          "indexed": false,
          "internalType": "bool",
          "name": "approved",
          "type": "bool"
        }
      ],
      "name": "ApprovalForAll",
      "type": "event"
    },
    {
      "anonymous": false,
      "inputs": [
        {
          "indexed": true,
          "internalType": "address",
          "name": "to",
          "type": "address"
        },
        {
          "indexed": true,
          "internalType": "bool",
          "name": "success",
          "type": "bool"
        },
        {
          "indexed": false,
          "internalType": "bytes",
          "name": "returnData",
          "type": "bytes"
        },
        {
          "indexed": false,
          "internalType": "uint256",
          "name": "amount",
          "type": "uint256"
        }
      ],
      "name": "EthMoved",
      "type": "event"
    },
    {
      "anonymous": false,
      "inputs": [
        {
          "indexed": true,
          "internalType": "address",
          "name": "previousOwner",
          "type": "address"
        },
        {
          "indexed": true,
          "internalType": "address",
          "name": "newOwner",
          "type": "address"
        }
      ],
      "name": "OwnershipTransferred",
      "type": "event"
    },
    {
      "anonymous": false,
      "inputs": [
        {
          "indexed": true,
          "internalType": "address",
          "name": "from",
          "type": "address"
        },
        {
          "indexed": true,
          "internalType": "address",
          "name": "to",
          "type": "address"
        },
        {
          "indexed": true,
          "internalType": "uint256",
          "name": "tokenId",
          "type": "uint256"
        }
      ],
      "name": "Transfer",
      "type": "event"
    },
    {
      "stateMutability": "payable",
      "type": "fallback"
    },
    {
      "inputs": [],
      "name": "MAX_SUPPLY",
      "outputs": [
        {
          "internalType": "uint256",
          "name": "",
          "type": "uint256"
        }
      ],
      "stateMutability": "view",
      "type": "function"
    },
    {
      "inputs": [
        {
          "internalType": "address",
          "name": "recipient",
          "type": "address"
        },
        {
          "internalType": "uint256",
          "name": "quantity",
          "type": "uint256"
        },
        {
          "internalType": "uint256[]",
          "name": "entropy",
          "type": "uint256[]"
        }
      ],
      "name": "adminMint",
      "outputs": [],
      "stateMutability": "payable",
      "type": "function"
    },
    {
      "inputs": [
        {
          "internalType": "address",
          "name": "recipient",
          "type": "address"
        },
        {
          "internalType": "uint256",
          "name": "quantity",
          "type": "uint256"
        }
      ],
      "name": "adminMint",
      "outputs": [],
      "stateMutability": "payable",
      "type": "function"
    },
    {
      "inputs": [
        {
          "internalType": "address",
          "name": "to",
          "type": "address"
        },
        {
          "internalType": "uint256",
          "name": "tokenId",
          "type": "uint256"
        }
      ],
      "name": "approve",
      "outputs": [],
      "stateMutability": "nonpayable",
      "type": "function"
    },
    {
      "inputs": [
        {
          "internalType": "address",
          "name": "owner",
          "type": "address"
        }
      ],
      "name": "balanceOf",
      "outputs": [
        {
          "internalType": "uint256",
          "name": "",
          "type": "uint256"
        }
      ],
      "stateMutability": "view",
      "type": "function"
    },
    {
      "inputs": [
        {
          "internalType": "uint256",
          "name": "tokenId",
          "type": "uint256"
        }
      ],
      "name": "getApproved",
      "outputs": [
        {
          "internalType": "address",
          "name": "",
          "type": "address"
        }
      ],
      "stateMutability": "view",
      "type": "function"
    },
    {
      "inputs": [
        {
          "internalType": "bytes32",
          "name": "entropy",
          "type": "bytes32"
        }
      ],
      "name": "hexToUintUtil",
      "outputs": [
        {
          "internalType": "uint256",
          "name": "result",
          "type": "uint256"
        }
      ],
      "stateMutability": "pure",
      "type": "function"
    },
    {
      "inputs": [
        {
          "internalType": "address",
          "name": "owner",
          "type": "address"
        },
        {
          "internalType": "address",
          "name": "operator",
          "type": "address"
        }
      ],
      "name": "isApprovedForAll",
      "outputs": [
        {
          "internalType": "bool",
          "name": "",
          "type": "bool"
        }
      ],
      "stateMutability": "view",
      "type": "function"
    },
    {
      "inputs": [
        {
          "internalType": "uint256",
          "name": "quantity",
          "type": "uint256"
        }
      ],
      "name": "makeEntropy",
      "outputs": [
        {
          "internalType": "uint256[]",
          "name": "entropy",
          "type": "uint256[]"
        }
      ],
      "stateMutability": "view",
      "type": "function"
    },
    {
      "inputs": [],
      "name": "metadata",
      "outputs": [
        {
          "internalType": "address",
          "name": "",
          "type": "address"
        }
      ],
      "stateMutability": "view",
      "type": "function"
    },
    {
      "inputs": [],
      "name": "mint",
      "outputs": [],
      "stateMutability": "payable",
      "type": "function"
    },
    {
      "inputs": [
        {
          "internalType": "address",
          "name": "recipient",
          "type": "address"
        },
        {
          "internalType": "uint256",
          "name": "quantity",
          "type": "uint256"
        }
      ],
      "name": "mint",
      "outputs": [],
      "stateMutability": "payable",
      "type": "function"
    },
    {
      "inputs": [
        {
          "internalType": "address",
          "name": "recipient",
          "type": "address"
        }
      ],
      "name": "mint",
      "outputs": [],
      "stateMutability": "payable",
      "type": "function"
    },
    {
      "inputs": [
        {
          "internalType": "uint256",
          "name": "quantity",
          "type": "uint256"
        }
      ],
      "name": "mint",
      "outputs": [],
      "stateMutability": "payable",
      "type": "function"
    },
    {
      "inputs": [
        {
          "internalType": "address",
          "name": "recipient",
          "type": "address"
        },
        {
          "internalType": "uint256",
          "name": "quantity",
          "type": "uint256"
        },
        {
          "internalType": "uint256[]",
          "name": "entropy",
          "type": "uint256[]"
        }
      ],
      "name": "mint",
      "outputs": [],
      "stateMutability": "payable",
      "type": "function"
    },
    {
      "inputs": [
        {
          "internalType": "address",
          "name": "recipient",
          "type": "address"
        },
        {
          "internalType": "uint256",
          "name": "entropy",
          "type": "uint256"
        }
      ],
      "name": "mintWithEntropy",
      "outputs": [],
      "stateMutability": "payable",
      "type": "function"
    },
    {
      "inputs": [],
      "name": "name",
      "outputs": [
        {
          "internalType": "string",
          "name": "",
          "type": "string"
        }
      ],
      "stateMutability": "view",
      "type": "function"
    },
    {
      "inputs": [],
      "name": "owner",
      "outputs": [
        {
          "internalType": "address",
          "name": "",
          "type": "address"
        }
      ],
      "stateMutability": "view",
      "type": "function"
    },
    {
      "inputs": [
        {
          "internalType": "uint256",
          "name": "tokenId",
          "type": "uint256"
        }
      ],
      "name": "ownerOf",
      "outputs": [
        {
          "internalType": "address",
          "name": "",
          "type": "address"
        }
      ],
      "stateMutability": "view",
      "type": "function"
    },
    {
      "inputs": [],
      "name": "paused",
      "outputs": [
        {
          "internalType": "bool",
          "name": "",
          "type": "bool"
        }
      ],
      "stateMutability": "view",
      "type": "function"
    },
    {
      "inputs": [],
      "name": "price",
      "outputs": [
        {
          "internalType": "uint256",
          "name": "",
          "type": "uint256"
        }
      ],
      "stateMutability": "view",
      "type": "function"
    },
    {
      "inputs": [
        {
          "internalType": "address payable",
          "name": "_to",
          "type": "address"
        }
      ],
      "name": "recoverUnsuccessfulMintPayment",
      "outputs": [],
      "stateMutability": "nonpayable",
      "type": "function"
    },
    {
      "inputs": [],
      "name": "renounceOwnership",
      "outputs": [],
      "stateMutability": "nonpayable",
      "type": "function"
    },
    {
      "inputs": [
        {
          "internalType": "uint256",
          "name": "tokenId",
          "type": "uint256"
        },
        {
          "internalType": "uint256",
          "name": "salePrice",
          "type": "uint256"
        }
      ],
      "name": "royaltyInfo",
      "outputs": [
        {
          "internalType": "address",
          "name": "",
          "type": "address"
        },
        {
          "internalType": "uint256",
          "name": "",
          "type": "uint256"
        }
      ],
      "stateMutability": "view",
      "type": "function"
    },
    {
      "inputs": [
        {
          "internalType": "address",
          "name": "from",
          "type": "address"
        },
        {
          "internalType": "address",
          "name": "to",
          "type": "address"
        },
        {
          "internalType": "uint256",
          "name": "tokenId",
          "type": "uint256"
        }
      ],
      "name": "safeTransferFrom",
      "outputs": [],
      "stateMutability": "nonpayable",
      "type": "function"
    },
    {
      "inputs": [
        {
          "internalType": "address",
          "name": "from",
          "type": "address"
        },
        {
          "internalType": "address",
          "name": "to",
          "type": "address"
        },
        {
          "internalType": "uint256",
          "name": "tokenId",
          "type": "uint256"
        },
        {
          "internalType": "bytes",
          "name": "data",
          "type": "bytes"
        }
      ],
      "name": "safeTransferFrom",
      "outputs": [],
      "stateMutability": "nonpayable",
      "type": "function"
    },
    {
      "inputs": [
        {
          "internalType": "address",
          "name": "operator",
          "type": "address"
        },
        {
          "internalType": "bool",
          "name": "approved",
          "type": "bool"
        }
      ],
      "name": "setApprovalForAll",
      "outputs": [],
      "stateMutability": "nonpayable",
      "type": "function"
    },
    {
      "inputs": [
        {
          "internalType": "address",
          "name": "metadata_",
          "type": "address"
        }
      ],
      "name": "setMetadata",
      "outputs": [],
      "stateMutability": "nonpayable",
      "type": "function"
    },
    {
      "inputs": [
        {
          "internalType": "bool",
          "name": "paused_",
          "type": "bool"
        }
      ],
      "name": "setPause",
      "outputs": [],
      "stateMutability": "nonpayable",
      "type": "function"
    },
    {
      "inputs": [
        {
          "internalType": "uint256",
          "name": "price_",
          "type": "uint256"
        }
      ],
      "name": "setPrice",
      "outputs": [],
      "stateMutability": "nonpayable",
      "type": "function"
    },
    {
      "inputs": [
        {
          "internalType": "address",
          "name": "royaltyReceiver",
          "type": "address"
        },
        {
          "internalType": "uint96",
          "name": "royaltyPercentage",
          "type": "uint96"
        }
      ],
      "name": "setRoyaltyPercentage",
      "outputs": [],
      "stateMutability": "nonpayable",
      "type": "function"
    },
    {
      "inputs": [
        {
          "internalType": "address",
          "name": "splitter_",
          "type": "address"
        }
      ],
      "name": "setSplitter",
      "outputs": [],
      "stateMutability": "nonpayable",
      "type": "function"
    },
    {
      "inputs": [
        {
          "internalType": "uint256",
          "name": "startdate_",
          "type": "uint256"
        }
      ],
      "name": "setStartdate",
      "outputs": [],
      "stateMutability": "nonpayable",
      "type": "function"
    },
    {
      "inputs": [],
      "name": "splitter",
      "outputs": [
        {
          "internalType": "address",
          "name": "",
          "type": "address"
        }
      ],
      "stateMutability": "view",
      "type": "function"
    },
    {
      "inputs": [],
      "name": "startdate",
      "outputs": [
        {
          "internalType": "uint256",
          "name": "",
          "type": "uint256"
        }
      ],
      "stateMutability": "view",
      "type": "function"
    },
    {
      "inputs": [
        {
          "internalType": "bytes4",
          "name": "interfaceId",
          "type": "bytes4"
        }
      ],
      "name": "supportsInterface",
      "outputs": [
        {
          "internalType": "bool",
          "name": "",
          "type": "bool"
        }
      ],
      "stateMutability": "view",
      "type": "function"
    },
    {
      "inputs": [],
      "name": "symbol",
      "outputs": [
        {
          "internalType": "string",
          "name": "",
          "type": "string"
        }
      ],
      "stateMutability": "view",
      "type": "function"
    },
    {
      "inputs": [
        {
          "internalType": "uint256",
          "name": "index",
          "type": "uint256"
        }
      ],
      "name": "tokenByIndex",
      "outputs": [
        {
          "internalType": "uint256",
          "name": "",
          "type": "uint256"
        }
      ],
      "stateMutability": "view",
      "type": "function"
    },
    {
      "inputs": [
        {
          "internalType": "address",
          "name": "owner",
          "type": "address"
        },
        {
          "internalType": "uint256",
          "name": "index",
          "type": "uint256"
        }
      ],
      "name": "tokenOfOwnerByIndex",
      "outputs": [
        {
          "internalType": "uint256",
          "name": "",
          "type": "uint256"
        }
      ],
      "stateMutability": "view",
      "type": "function"
    },
    {
      "inputs": [
        {
          "internalType": "uint256",
          "name": "id",
          "type": "uint256"
        }
      ],
      "name": "tokenURI",
      "outputs": [
        {
          "internalType": "string",
          "name": "",
          "type": "string"
        }
      ],
      "stateMutability": "view",
      "type": "function"
    },
    {
      "inputs": [],
      "name": "totalSupply",
      "outputs": [
        {
          "internalType": "uint256",
          "name": "",
          "type": "uint256"
        }
      ],
      "stateMutability": "view",
      "type": "function"
    },
    {
      "inputs": [
        {
          "internalType": "address",
          "name": "from",
          "type": "address"
        },
        {
          "internalType": "address",
          "name": "to",
          "type": "address"
        },
        {
          "internalType": "uint256",
          "name": "tokenId",
          "type": "uint256"
        }
      ],
      "name": "transferFrom",
      "outputs": [],
      "stateMutability": "nonpayable",
      "type": "function"
    },
    {
      "inputs": [
        {
          "internalType": "address",
          "name": "newOwner",
          "type": "address"
        }
      ],
      "name": "transferOwnership",
      "outputs": [],
      "stateMutability": "nonpayable",
      "type": "function"
    },
    {
      "inputs": [
        {
          "internalType": "uint256",
          "name": "entropy",
          "type": "uint256"
        }
      ],
      "name": "uintToHexUtil",
      "outputs": [
        {
          "internalType": "bytes32",
          "name": "result",
          "type": "bytes32"
        }
      ],
      "stateMutability": "pure",
      "type": "function"
    },
    {
      "stateMutability": "payable",
      "type": "receive"
    }
  ],
  "bytecode": "0x6080604052600e805460ff1916905566c55f7bc23038e3600f556365789fa06012553480156200002e57600080fd5b5060405162002e1338038062002e1383398101604081905262000051916200027a565b604080518082018252600480825263446f415760e01b60208084018290528451808601909552918452908301529060006200008d838262000357565b5060016200009c828262000357565b505050620000b9620000b36200010260201b60201c565b62000106565b6001600d55601080546001600160a01b038085166001600160a01b031992831617909255601180549284169290911682179055620000fa9061035262000158565b505062000423565b3390565b600a80546001600160a01b038381166001600160a01b0319831681179093556040519116919082907f8be0079c531659141344cd1fd0a4f28419497f9722a3daafe3b4186f6b6457e090600090a35050565b6127106001600160601b0382161115620001cc5760405162461bcd60e51b815260206004820152602a60248201527f455243323938313a20726f79616c7479206665652077696c6c206578636565646044820152692073616c65507269636560b01b60648201526084015b60405180910390fd5b6001600160a01b038216620002245760405162461bcd60e51b815260206004820152601960248201527f455243323938313a20696e76616c6964207265636569766572000000000000006044820152606401620001c3565b604080518082019091526001600160a01b039092168083526001600160601b039091166020909201829052600160a01b90910217600b55565b80516001600160a01b03811681146200027557600080fd5b919050565b600080604083850312156200028e57600080fd5b62000299836200025d565b9150620002a9602084016200025d565b90509250929050565b634e487b7160e01b600052604160045260246000fd5b600181811c90821680620002dd57607f821691505b602082108103620002fe57634e487b7160e01b600052602260045260246000fd5b50919050565b601f8211156200035257600081815260208120601f850160051c810160208610156200032d5750805b601f850160051c820191505b818110156200034e5782815560010162000339565b5050505b505050565b81516001600160401b03811115620003735762000373620002b2565b6200038b81620003848454620002c8565b8462000304565b602080601f831160018114620003c35760008415620003aa5750858301515b600019600386901b1c1916600185901b1785556200034e565b600085815260208120601f198616915b82811015620003f457888601518255948401946001909101908401620003d3565b5085821015620004135787850151600019600388901b60f8161c191681555b5050505050600190811b01905550565b6129e080620004336000396000f3fe60806040526004361061026b5760003560e01c8063881a37c611610144578063c09fd8ef116100b6578063e58306f91161007a578063e58306f9146106d0578063e985e9c5146106e3578063f2fde38b1461072c578063f3cb83851461074c578063f5d5327b1461076c578063fe23245a146107995761027a565b8063c09fd8ef1461063a578063c87b56dd1461065a578063c93fc83d1461067a578063cde9f2ea1461069a578063d410f569146106b05761027a565b8063a035b1fe11610108578063a035b1fe146105b1578063a0712d68146105c7578063a22cb465146105da578063b88d4fde146105fa578063b9d9e5931461051a578063bedb86fb1461061a5761027a565b8063881a37c6146105385780638da5cb5b1461054b57806391b7f5ed14610569578063958220e31461058957806395d89b411461059c5761027a565b80633cd8045e116101dd5780636352211e116101a15780636352211e146104925780636a627842146104b257806370a08231146104c5578063715018a6146104e5578063818779ef146104fa578063821a74a51461051a5761027a565b80633cd8045e1461040557806340c10f191461042557806342842e0e146104385780634f6ccce7146104585780635c975abb146104785761027a565b806318160ddd1161022f57806318160ddd1461033157806323b872dd146103505780632a55205a146103705780632f745c59146103af57806332cb6b0c146103cf578063392f37e9146103e55761027a565b806301ffc9a71461028257806306fdde03146102b7578063081812fc146102d9578063095ea7b3146103115780631249c58b1461027a5761027a565b3661027a576102786107ac565b005b6102786107ac565b34801561028e57600080fd5b506102a261029d36600461224d565b6107b9565b60405190151581526020015b60405180910390f35b3480156102c357600080fd5b506102cc61081a565b6040516102ae91906122c9565b3480156102e557600080fd5b506102f96102f43660046122dc565b6108ac565b6040516001600160a01b0390911681526020016102ae565b34801561031d57600080fd5b5061027861032c36600461230a565b6108d3565b34801561033d57600080fd5b506008545b6040519081526020016102ae565b34801561035c57600080fd5b5061027861036b366004612336565b6109ed565b34801561037c57600080fd5b5061039061038b366004612377565b610a1e565b604080516001600160a01b0390931683526020830191909152016102ae565b3480156103bb57600080fd5b506103426103ca36600461230a565b610aca565b3480156103db57600080fd5b5061034261040081565b3480156103f157600080fd5b506010546102f9906001600160a01b031681565b34801561041157600080fd5b506011546102f9906001600160a01b031681565b61027861043336600461230a565b610b60565b34801561044457600080fd5b50610278610453366004612336565b610bc1565b34801561046457600080fd5b506103426104733660046122dc565b610bdc565b34801561048457600080fd5b50600e546102a29060ff1681565b34801561049e57600080fd5b506102f96104ad3660046122dc565b610c6f565b6102786104c0366004612399565b610ccf565b3480156104d157600080fd5b506103426104e0366004612399565b610cdd565b3480156104f157600080fd5b50610278610d63565b34801561050657600080fd5b506102786105153660046123b6565b610d75565b34801561052657600080fd5b506103426105353660046122dc565b90565b610278610546366004612442565b610d87565b34801561055757600080fd5b50600a546001600160a01b03166102f9565b34801561057557600080fd5b506102786105843660046122dc565b610e6f565b61027861059736600461230a565b610e7c565b3480156105a857600080fd5b506102cc610eca565b3480156105bd57600080fd5b50610342600f5481565b6102786105d53660046122dc565b610ed9565b3480156105e657600080fd5b506102786105f536600461251b565b610ee3565b34801561060657600080fd5b50610278610615366004612578565b610eee565b34801561062657600080fd5b50610278610635366004612627565b610f26565b34801561064657600080fd5b50610278610655366004612399565b610f41565b34801561066657600080fd5b506102cc6106753660046122dc565b610fdc565b34801561068657600080fd5b50610278610695366004612399565b61104e565b3480156106a657600080fd5b5061034260125481565b3480156106bc57600080fd5b506102786106cb3660046122dc565b6110c0565b6102786106de36600461230a565b6110cd565b3480156106ef57600080fd5b506102a26106fe366004612642565b6001600160a01b03918216600090815260056020908152604080832093909416825291909152205460ff1690565b34801561073857600080fd5b50610278610747366004612399565b6110e3565b34801561075857600080fd5b50610278610767366004612399565b611159565b34801561077857600080fd5b5061078c6107873660046122dc565b6111cb565b6040516102ae9190612670565b6102786107a7366004612442565b6112b3565b6107b7336001610b60565b565b60006001600160e01b031982166380ac58cd60e01b14806107ea57506001600160e01b03198216635b5e139f60e01b145b8061080557506001600160e01b0319821663152a902d60e11b145b80610814575061081482611308565b92915050565b606060008054610829906126b4565b80601f0160208091040260200160405190810160405280929190818152602001828054610855906126b4565b80156108a25780601f10610877576101008083540402835291602001916108a2565b820191906000526020600020905b81548152906001019060200180831161088557829003601f168201915b5050505050905090565b60006108b78261132d565b506000908152600460205260409020546001600160a01b031690565b60006108de82610c6f565b9050806001600160a01b0316836001600160a01b0316036109505760405162461bcd60e51b815260206004820152602160248201527f4552433732313a20617070726f76616c20746f2063757272656e74206f776e656044820152603960f91b60648201526084015b60405180910390fd5b336001600160a01b038216148061096c575061096c81336106fe565b6109de5760405162461bcd60e51b815260206004820152603d60248201527f4552433732313a20617070726f76652063616c6c6572206973206e6f7420746f60448201527f6b656e206f776e6572206f7220617070726f76656420666f7220616c6c0000006064820152608401610947565b6109e8838361138c565b505050565b6109f733826113fa565b610a135760405162461bcd60e51b8152600401610947906126e8565b6109e8838383611479565b6000828152600c602090815260408083208151808301909252546001600160a01b038116808352600160a01b9091046001600160601b0316928201929092528291610a93575060408051808201909152600b546001600160a01b0381168252600160a01b90046001600160601b031660208201525b602081015160009061271090610ab2906001600160601b03168761274b565b610abc919061276a565b915196919550909350505050565b6000610ad583610cdd565b8210610b375760405162461bcd60e51b815260206004820152602b60248201527f455243373231456e756d657261626c653a206f776e657220696e646578206f7560448201526a74206f6620626f756e647360a81b6064820152608401610947565b506001600160a01b03919091166000908152600660209081526040808320938352929052205490565b600e5460ff16158015610b7557506012544210155b610baa5760405162461bcd60e51b815260206004820152600660248201526514105554d15160d21b6044820152606401610947565b610bbd8282610bb8846111cb565b6115ea565b5050565b6109e883838360405180602001604052806000815250610eee565b6000610be760085490565b8210610c4a5760405162461bcd60e51b815260206004820152602c60248201527f455243373231456e756d657261626c653a20676c6f62616c20696e646578206f60448201526b7574206f6620626f756e647360a01b6064820152608401610947565b60088281548110610c5d57610c5d61278c565b90600052602060002001549050919050565b6000818152600260205260408120546001600160a01b0316806108145760405162461bcd60e51b8152602060048201526018602482015277115490cdcc8c4e881a5b9d985b1a59081d1bdad95b88125160421b6044820152606401610947565b610cda816001610b60565b50565b60006001600160a01b038216610d475760405162461bcd60e51b815260206004820152602960248201527f4552433732313a2061646472657373207a65726f206973206e6f7420612076616044820152683634b21037bbb732b960b91b6064820152608401610947565b506001600160a01b031660009081526003602052604090205490565b610d6b611914565b6107b7600061196e565b610d7d611914565b610bbd82826119c0565b610d8f611914565b60115460405160009182916001600160a01b039091169034908381818185875af1925050503d8060008114610de0576040519150601f19603f3d011682016040523d82523d6000602084013e610de5565b606091505b50601154604051929450909250831515916001600160a01b039091169060008051602061298b83398151915290610e1f90859034906127a2565b60405180910390a360005b84811015610e6757610e5586858381518110610e4857610e4861278c565b6020026020010151611abd565b80610e5f816127c4565b915050610e2a565b505050505050565b610e77611914565b600f55565b604080516001808252818301909252600091602080830190803683370190505090508181600081518110610eb257610eb261278c565b6020026020010181815250506109e8836001836112b3565b606060018054610829906126b4565b610cda3382610b60565b610bbd338383611ad7565b610ef833836113fa565b610f145760405162461bcd60e51b8152600401610947906126e8565b610f2084848484611ba5565b50505050565b610f2e611914565b600e805460ff1916911515919091179055565b610f49611914565b604051479060009081906001600160a01b0385169084908381818185875af1925050503d8060008114610f98576040519150601f19603f3d011682016040523d82523d6000602084013e610f9d565b606091505b5091509150811515846001600160a01b031660008051602061298b8339815191528386604051610fce9291906127a2565b60405180910390a350505050565b60105460405163295d33a960e21b8152600481018390526060916001600160a01b03169063a574cea490602401600060405180830381865afa158015611026573d6000803e3d6000fd5b505050506040513d6000823e601f3d908101601f1916820160405261081491908101906127dd565b611056611914565b6001600160a01b03811661109e5760405162461bcd60e51b815260206004820152600f60248201526e4e4f205a45524f204144445245535360881b6044820152606401610947565b601180546001600160a01b0319166001600160a01b0392909216919091179055565b6110c8611914565b601255565b6110d5611914565b610bbd8282610546846111cb565b6110eb611914565b6001600160a01b0381166111505760405162461bcd60e51b815260206004820152602660248201527f4f776e61626c653a206e6577206f776e657220697320746865207a65726f206160448201526564647265737360d01b6064820152608401610947565b610cda8161196e565b611161611914565b6001600160a01b0381166111a95760405162461bcd60e51b815260206004820152600f60248201526e4e4f205a45524f204144445245535360881b6044820152606401610947565b601080546001600160a01b0319166001600160a01b0392909216919091179055565b60608167ffffffffffffffff8111156111e6576111e66123fb565b60405190808252806020026020018201604052801561120f578160200160208202803683370190505b50905060005b828110156112ad574244338360405160200161125c9493929190938452602084019290925260601b6bffffffffffffffffffffffff19166040830152605482015260740190565b6040516020818303038152906040528051906020012060001c6001600160801b03168282815181106112905761129061278c565b6020908102919091010152806112a5816127c4565b915050611215565b50919050565b600e5460ff161580156112c857506012544210155b6112fd5760405162461bcd60e51b815260206004820152600660248201526514105554d15160d21b6044820152606401610947565b6109e88383836115ea565b60006001600160e01b0319821663152a902d60e11b1480610814575061081482611bd8565b6000818152600260205260409020546001600160a01b0316610cda5760405162461bcd60e51b8152602060048201526018602482015277115490cdcc8c4e881a5b9d985b1a59081d1bdad95b88125160421b6044820152606401610947565b600081815260046020526040902080546001600160a01b0319166001600160a01b03841690811790915581906113c182610c6f565b6001600160a01b03167f8c5be1e5ebec7d5bd14f71427d1e84f3dd0314c0f7b2291e5b200ac8c7c3b92560405160405180910390a45050565b60008061140683610c6f565b9050806001600160a01b0316846001600160a01b0316148061144d57506001600160a01b0380821660009081526005602090815260408083209388168352929052205460ff165b806114715750836001600160a01b0316611466846108ac565b6001600160a01b0316145b949350505050565b826001600160a01b031661148c82610c6f565b6001600160a01b0316146114b25760405162461bcd60e51b815260040161094790612854565b6001600160a01b0382166115145760405162461bcd60e51b8152602060048201526024808201527f4552433732313a207472616e7366657220746f20746865207a65726f206164646044820152637265737360e01b6064820152608401610947565b6115218383836001611bfd565b826001600160a01b031661153482610c6f565b6001600160a01b03161461155a5760405162461bcd60e51b815260040161094790612854565b600081815260046020908152604080832080546001600160a01b03199081169091556001600160a01b0387811680865260038552838620805460001901905590871680865283862080546001019055868652600290945282852080549092168417909155905184937fddf252ad1be2c89b69c2b068fc378daa952ba7f163c4a11628f55a4df523b3ef91a4505050565b6115f2611d31565b81600f54611600919061274b565b34101561163d5760405162461bcd60e51b815260206004820152600b60248201526a57524f4e4720505249434560a81b6044820152606401610947565b8181511461169b5760405162461bcd60e51b815260206004820152602560248201527f454e54524f5059204c454e47544820444f45534e2754204d41544348205155416044820152644e5449545960d81b6064820152608401610947565b81600114806116aa5750816003145b806116b55750816005145b6117125760405162461bcd60e51b815260206004820152602860248201527f43414e2754204d494e542042455349444553205155414e54495459204f4620316044820152672c2033204f52203560c01b6064820152608401610947565b6104008261171f60085490565b6117299190612899565b11156117855760085461173e906104006128b1565b9150816000036117855760405162461bcd60e51b81526020600482015260126024820152711350560814d5541413164814915050d2115160721b6044820152606401610947565b6000600f5483611795919061274b565b60115460405191925060009182916001600160a01b03169084908381818185875af1925050503d80600081146117e7576040519150601f19603f3d011682016040523d82523d6000602084013e6117ec565b606091505b50601154604051929450909250831515916001600160a01b039091169060008051602061298b8339815191529061182690859088906127a2565b60405180910390a360005b85811015611877576118658786838151811061184f5761184f61278c565b60200260200101516001600160801b0316611abd565b8061186f816127c4565b915050611831565b5034831015611907573361188b84346128b1565b604051600081818185875af1925050503d80600081146118c7576040519150601f19603f3d011682016040523d82523d6000602084013e6118cc565b606091505b5090925090508115153360008051602061298b833981519152836118f087346128b1565b6040516118fe9291906127a2565b60405180910390a35b5050506109e86001600d55565b600a546001600160a01b031633146107b75760405162461bcd60e51b815260206004820181905260248201527f4f776e61626c653a2063616c6c6572206973206e6f7420746865206f776e65726044820152606401610947565b600a80546001600160a01b038381166001600160a01b0319831681179093556040519116919082907f8be0079c531659141344cd1fd0a4f28419497f9722a3daafe3b4186f6b6457e090600090a35050565b6127106001600160601b0382161115611a2e5760405162461bcd60e51b815260206004820152602a60248201527f455243323938313a20726f79616c7479206665652077696c6c206578636565646044820152692073616c65507269636560b01b6064820152608401610947565b6001600160a01b038216611a845760405162461bcd60e51b815260206004820152601960248201527f455243323938313a20696e76616c6964207265636569766572000000000000006044820152606401610947565b604080518082019091526001600160a01b039092168083526001600160601b039091166020909201829052600160a01b90910217600b55565b610bbd828260405180602001604052806000815250611d8a565b816001600160a01b0316836001600160a01b031603611b385760405162461bcd60e51b815260206004820152601960248201527f4552433732313a20617070726f766520746f2063616c6c6572000000000000006044820152606401610947565b6001600160a01b03838116600081815260056020908152604080832094871680845294825291829020805460ff191686151590811790915591519182527f17307eab39ab6107e8899845ad3d59bd9653f200f220920489ca2b5937696c31910160405180910390a3505050565b611bb0848484611479565b611bbc84848484611dbd565b610f205760405162461bcd60e51b8152600401610947906128c8565b60006001600160e01b0319821663780e9d6360e01b1480610814575061081482611ebe565b6001811115611c6c5760405162461bcd60e51b815260206004820152603560248201527f455243373231456e756d657261626c653a20636f6e7365637574697665207472604482015274185b9cd9995c9cc81b9bdd081cdd5c1c1bdc9d1959605a1b6064820152608401610947565b816001600160a01b038516611cc857611cc381600880546000838152600960205260408120829055600182018355919091527ff3f7a9fe364faab93b216da50a3214154f22a0a2b415b23a84c8169e8b636ee30155565b611ceb565b836001600160a01b0316856001600160a01b031614611ceb57611ceb8582611f0e565b6001600160a01b038416611d0757611d0281611fab565b611d2a565b846001600160a01b0316846001600160a01b031614611d2a57611d2a848261205a565b5050505050565b6002600d5403611d835760405162461bcd60e51b815260206004820152601f60248201527f5265656e7472616e637947756172643a207265656e7472616e742063616c6c006044820152606401610947565b6002600d55565b611d94838361209e565b611da16000848484611dbd565b6109e85760405162461bcd60e51b8152600401610947906128c8565b60006001600160a01b0384163b15611eb357604051630a85bd0160e11b81526001600160a01b0385169063150b7a0290611e0190339089908890889060040161291a565b6020604051808303816000875af1925050508015611e3c575060408051601f3d908101601f19168201909252611e3991810190612957565b60015b611e99573d808015611e6a576040519150601f19603f3d011682016040523d82523d6000602084013e611e6f565b606091505b508051600003611e915760405162461bcd60e51b8152600401610947906128c8565b805181602001fd5b6001600160e01b031916630a85bd0160e11b149050611471565b506001949350505050565b60006001600160e01b031982166380ac58cd60e01b1480611eef57506001600160e01b03198216635b5e139f60e01b145b8061081457506301ffc9a760e01b6001600160e01b0319831614610814565b60006001611f1b84610cdd565b611f2591906128b1565b600083815260076020526040902054909150808214611f78576001600160a01b03841660009081526006602090815260408083208584528252808320548484528184208190558352600790915290208190555b5060009182526007602090815260408084208490556001600160a01b039094168352600681528383209183525290812055565b600854600090611fbd906001906128b1565b60008381526009602052604081205460088054939450909284908110611fe557611fe561278c565b9060005260206000200154905080600883815481106120065761200661278c565b600091825260208083209091019290925582815260099091526040808220849055858252812055600880548061203e5761203e612974565b6001900381819060005260206000200160009055905550505050565b600061206583610cdd565b6001600160a01b039093166000908152600660209081526040808320868452825280832085905593825260079052919091209190915550565b6001600160a01b0382166120f45760405162461bcd60e51b815260206004820181905260248201527f4552433732313a206d696e7420746f20746865207a65726f20616464726573736044820152606401610947565b6000818152600260205260409020546001600160a01b0316156121595760405162461bcd60e51b815260206004820152601c60248201527f4552433732313a20746f6b656e20616c7265616479206d696e746564000000006044820152606401610947565b612167600083836001611bfd565b6000818152600260205260409020546001600160a01b0316156121cc5760405162461bcd60e51b815260206004820152601c60248201527f4552433732313a20746f6b656e20616c7265616479206d696e746564000000006044820152606401610947565b6001600160a01b038216600081815260036020908152604080832080546001019055848352600290915280822080546001600160a01b0319168417905551839291907fddf252ad1be2c89b69c2b068fc378daa952ba7f163c4a11628f55a4df523b3ef908290a45050565b6001600160e01b031981168114610cda57600080fd5b60006020828403121561225f57600080fd5b813561226a81612237565b9392505050565b60005b8381101561228c578181015183820152602001612274565b83811115610f205750506000910152565b600081518084526122b5816020860160208601612271565b601f01601f19169290920160200192915050565b60208152600061226a602083018461229d565b6000602082840312156122ee57600080fd5b5035919050565b6001600160a01b0381168114610cda57600080fd5b6000806040838503121561231d57600080fd5b8235612328816122f5565b946020939093013593505050565b60008060006060848603121561234b57600080fd5b8335612356816122f5565b92506020840135612366816122f5565b929592945050506040919091013590565b6000806040838503121561238a57600080fd5b50508035926020909101359150565b6000602082840312156123ab57600080fd5b813561226a816122f5565b600080604083850312156123c957600080fd5b82356123d4816122f5565b915060208301356001600160601b03811681146123f057600080fd5b809150509250929050565b634e487b7160e01b600052604160045260246000fd5b604051601f8201601f1916810167ffffffffffffffff8111828210171561243a5761243a6123fb565b604052919050565b60008060006060848603121561245757600080fd5b8335612462816122f5565b92506020848101359250604085013567ffffffffffffffff8082111561248757600080fd5b818701915087601f83011261249b57600080fd5b8135818111156124ad576124ad6123fb565b8060051b91506124be848301612411565b818152918301840191848101908a8411156124d857600080fd5b938501935b838510156124f6578435825293850193908501906124dd565b8096505050505050509250925092565b8035801515811461251657600080fd5b919050565b6000806040838503121561252e57600080fd5b8235612539816122f5565b915061254760208401612506565b90509250929050565b600067ffffffffffffffff82111561256a5761256a6123fb565b50601f01601f191660200190565b6000806000806080858703121561258e57600080fd5b8435612599816122f5565b935060208501356125a9816122f5565b925060408501359150606085013567ffffffffffffffff8111156125cc57600080fd5b8501601f810187136125dd57600080fd5b80356125f06125eb82612550565b612411565b81815288602083850101111561260557600080fd5b8160208401602083013760006020838301015280935050505092959194509250565b60006020828403121561263957600080fd5b61226a82612506565b6000806040838503121561265557600080fd5b8235612660816122f5565b915060208301356123f0816122f5565b6020808252825182820181905260009190848201906040850190845b818110156126a85783518352928401929184019160010161268c565b50909695505050505050565b600181811c908216806126c857607f821691505b6020821081036112ad57634e487b7160e01b600052602260045260246000fd5b6020808252602d908201527f4552433732313a2063616c6c6572206973206e6f7420746f6b656e206f776e6560408201526c1c881bdc88185c1c1c9bdd9959609a1b606082015260800190565b634e487b7160e01b600052601160045260246000fd5b600081600019048311821515161561276557612765612735565b500290565b60008261278757634e487b7160e01b600052601260045260246000fd5b500490565b634e487b7160e01b600052603260045260246000fd5b6040815260006127b5604083018561229d565b90508260208301529392505050565b6000600182016127d6576127d6612735565b5060010190565b6000602082840312156127ef57600080fd5b815167ffffffffffffffff81111561280657600080fd5b8201601f8101841361281757600080fd5b80516128256125eb82612550565b81815285602083850101111561283a57600080fd5b61284b826020830160208601612271565b95945050505050565b60208082526025908201527f4552433732313a207472616e736665722066726f6d20696e636f72726563742060408201526437bbb732b960d91b606082015260800190565b600082198211156128ac576128ac612735565b500190565b6000828210156128c3576128c3612735565b500390565b60208082526032908201527f4552433732313a207472616e7366657220746f206e6f6e20455243373231526560408201527131b2b4bb32b91034b6b83632b6b2b73a32b960711b606082015260800190565b6001600160a01b038581168252841660208201526040810183905260806060820181905260009061294d9083018461229d565b9695505050505050565b60006020828403121561296957600080fd5b815161226a81612237565b634e487b7160e01b600052603160045260246000fdfeb08889abce443443404b2caf69aa3ccfb9ebfdf1ad2a634d06e11e24c1067938a264697066735822122062622af0f11fb124f34b1ad5bb7eb9a698ec079caf66c510f978f9dac158354b64736f6c634300080f0033",
  "linkReferences": {},
  "deployedLinkReferences": {}
}